:020000040800F2
:10000000400B0020AD0100080D320008CD2B000888
:10001000093200089D0D0008F943000800000000A7
:10002000000000000000000000000000ED43000898
:10003000A10D000800000000E9430008F14300089A
:10004000C7010008C7010008C7010008C701000870
:10005000C7010008C7010008C7010008C701000860
:10006000C7010008C7010008C7010008C701000850
:10007000C7010008C7010008C7010008C701000840
:10008000C7010008C7010008C7010008C701000830
:10009000C7010008C7010008C7010008C701000820
:1000A000C7010008C7010008C7010008C701000810
:1000B000C7010008C7010008C7010008C701000800
:1000C000C7010008C7010008C7010008C7010008F0
:1000D000C7010008C7010008C7010008C7010008E0
:1000E000C7010008C7010008C701000800F002F8B6
:1000F00000F04DF80AA090E8000C82448344AAF175
:100100000107DA4501D100F042F8AFF2090EBAE872
:100110000F0013F0010F18BFFB1A43F0010318473B
:100120003C6C00005C6C0000103A24BF78C878C1B9
:10013000FAD8520724BF30C830C144BF04680C60ED
:10014000704700000023002400250026103A28BF35
:1001500078C1FBD8520728BF30C148BF0B60704739
:10016000662906F03C81642900F08080732900F044
:100170007E84002070471FB500F07EFC0400002044
:10018000002105F0CFF9E0601FBD10B510BD00F0F3
:1001900073FD1146FFF7EFFF04F04CFA00F091FDFC
:1001A00003B4FFF7F2FF03BC00F094FD0948804759
:1001B00009480047FEE7FEE7FEE7FEE7FEE7FEE749
:1001C000FEE7FEE7FEE7FEE704480549054A064B61
:1001D00070470000F5430008ED00000840050020CE
:1001E000400B002040070020400700200FB41CB542
:1001F000084B06AA7B4469460090059800F00DFC68
:1002000004460020694600F01BFC20461CBC5DF83B
:1002100014FB00004908000070B50C460546012A91
:1002200005D02878800600D5EA69002302E0012382
:1002300005E05B1C934202D2E05C0028F9D1A8697A
:10024000E618C01AA861286A184428622846AFF345
:10025000008004E0D5E9012114F8010B9047B44275
:10026000F8D32846AFF3008070BD00002DE9F041BF
:100270000646002410687529314616A510D0AFF344
:100280000080002802DA404213A507E031688A079F
:1002900001D512A502E0490704D511A5012401E00A
:1002A000AFF3008000210A2206F1240709E0B0FB29
:1002B000F2FCB0FBF2F302FB1C003030785418461D
:1002C000491C0028F3D123462A463046BDE8F041B8
:1002D00000F037B9000000002D0000002B000000E6
:1002E000200000002DE9F05F894604464FF0000A27
:1002F000DFF874B1FB44C0F820A02046E1688847CD
:10030000002874D0252806D0D4E901219047206A1E
:10031000401C2062F1E700265F462046E1688847DE
:100320002028054607DB312D05D2781910F8200C5E
:1003300008B10643F1E7B00701D526F00406C4F87A
:100340001CA00027C4F818A02A2D09D0284605F0C3
:1003500097F838B304EB8708303DC8F8185019E017
:1003600059F8041B204604EB87029161E168884735
:10037000012F054618D1E069002820DA26F0200672
:100380001DE0D8F8180000EB800005EB4000303885
:10039000C8F818002046E1688847054605F070F85F
:1003A0000028EED1012F0AD02E2D08D12046E16879
:1003B00088477F1C0546022F46F02006C4DBA06953
:1003C000002803DA404246F00106A061F00701D0A0
:1003D00026F010066C2D0BD0682D09D04C2D39D08D
:1003E0006A2D35D0742D35D07A2D33D016E038E013
:1003F000E1682F4620468847B842054609D16C2F50
:1004000026D04FF48060E1680643204688470546C1
:1004100004E06C2F1AD04FF4807006430DB3A5F1A1
:100420004100192802D8203546F400664A4629467C
:10043000204626604E46FFF793FE80B101280BD080
:10044000F61D26F0070000F1080956E74020E4E712
:100450008020D8E70020D6E706F104094DE72846BA
:1004600052E7206ABDE8F09FEA6000004FF000020A
:1004700000B5134694469646203922BFA0E80C509A
:10048000A0E80C50B1F12001BFF4F7AF090728BF75
:10049000A0E80C5048BF0CC05DF804EB890028BFF1
:1004A00040F8042B08BF704748BF20F8022B11F01A
:1004B000804F18BF00F8012B704700004FF0013C3F
:1004C00050F8042B51F8043B9A4221D1A2EB0C03C3
:1004D000934313EACC1317D150F8042B51F8043B83
:1004E0009A4215D1A2EB0C03934313EACC130BD120
:1004F00050F8042B51F8043B9A4209D1A2EB0C03AB
:10050000934313EACC13DBD04FF00000704700BFD9
:10051000D01A01BAB1FA81F101F0180122FA01F002
:10052000CB40DBB2C0B2C01AC1F120012CFA01F3FA
:10053000D11A914311EAC311E6D170477047704751
:1005400070472DE9F0470D4699469246044600F162
:1005500024080168880604D5E06921F010012160B3
:1005600000E00120A84201DD471B00E00027A1694F
:100570007A1902EB0900081AA0612078C00602D49B
:100580002046AFF30080002608E0D4E901211AF8E4
:1005900006009047206A401C761C20624E45F4DB22
:1005A0002078C0060AD52046AFF3008006E0D4E9E3
:1005B000012130209047206A401C2062381EA7F19C
:1005C0000107F4DC07E0D4E9012118F805009047A1
:1005D000206A401C2062281EA5F10105F3DC20469C
:1005E000AFF300802078000602D50220BDE8F08736
:1005F0000120FBE72DE9FF4F0C461E464FF0FF3769
:100600008BB0D2E90001DDF860800A908A46C1F320
:100610000A5505B93D46002108464FF00000BAF1E1
:10062000000F00F4400005DA00EB80004FF44001B9
:1006300001EA50004FEA9059B9F1010F00DDB946C7
:100640000A9850EA4A000ED044F61050A5F2FF3541
:1006500045432F14B8F1000F1ED07542291E1EDD30
:10066000C9F100021CE0B8F1010F4FF0000001D009
:10067000302103E0F24305E02154401CB042FBDB93
:1006800030460022002121540B99C1F80880C1E9AD
:1006900000200FB0BDE8F08FBD1B6D1CDEE74A46A1
:1006A00000DA694206A800F071FA06AB93E8070089
:1006B00003AB83E8070050460A9904F004FB8DE879
:1006C0000700A0F500501F3800900398002D0ADDA8
:1006D00042F21F014A460844002303A903906846DA
:1006E00004F06EFD09E0A0F500504A461F380023D3
:1006F00003A90390684604F078FD8DE80700000424
:10070000000C03D04FF0FF30410800E01046B8F174
:10071000000F03D00022009215461EE0751E05D47E
:1007200000F0AEF9303262556D1EF9D5B3460122A4
:10073000084302D000227F1C04E02078302801D139
:1007400000227F1E002A099784D01DE0112D07DAB0
:1007500000F096F9303262556D1C50EA0102F5D175
:10076000084302D00098C8B10EE00021681E05E0E1
:10077000235C625C63542254401E491C8142F7DBB7
:10078000AB46A81B401E0990002004F80B000B98F4
:10079000099AC0F80880C0E9002B7AE711264FF0CB
:1007A000000857E72DE9F04F88460446D21D22F095
:1007B000070191B0D1E90001CDE90A0104F04CFE36
:1007C00002460B98C00F01D02D2007E0206881075A
:1007D00001D52B2002E0202101EAC000032A099064
:1007E00001D0072A05DB03464146204600F08EF97A
:1007F0000BE12078800601D5E06900E00620B8F121
:10080000650F814606D0B8F1660F18D0B8F1670FB2
:1008100070D131E00020B9F1110F009001DB1123FC
:1008200001E009F101030AAA01A90CA8FFF7E2FE01
:10083000DDE90C70002609F10105834647E001203F
:100840004B4600904FF000470AAA01A90CA8FFF7F9
:10085000D1FEDDE90DB00C995D46002610B909F115
:1008600001000D18B9EB050003D4C0F1FF3609F102
:100870000105A5EB09002BE0B9F1010F01DA4FF0FA
:1008800001090020B9F1110F0090484601DD112344
:1008900000E003460AAA01A90CA8FFF7ABFEDDE9B8
:1008A0000C704D4600268346207800070AD4AB45DD
:1008B00000DA5D4601A8012D04DD411911F8011C83
:1008C000302907D04F4502DA17F1040F04DA01206E
:1008D00082460FE06D1EEEE7002F02DCED1B3E446A
:1008E00003E0781CA84200DD7D1CB81B00F1010A62
:1008F0004FF000472078000703D4AA4501DB4FF0F2
:10090000FF3A0021B7F1004F0DF143088DF8431075
:1009100024D002202B23002F01DA7F422D230A212D
:10092000021EA0F1010000DC5FB197FBF1FC97FB18
:10093000F1F201FB1C7C17460CF1300C08F801CDDC
:10094000EEE7A8F1010003702188090501D54521D2
:1009500000E06521A0F1010800F8011C09980FA929
:10096000A1EB0807FF1D00B10120411901EBEA705E
:10097000A1693844081A401EA0612078C00602D43C
:100980002046AFF30080099828B1D4E901219047AF
:10099000206A401C20622078C00622D52046AFF392
:1009A00000801EE0002E04DBB34502DD01A8805D5F
:1009B00000E03020D4E901219047206A401C2062E9
:1009C000761CAAF101005FEA000A0AD100F054F88F
:1009D000C0680168405CD4E901219047206A401C4E
:1009E0002062281EA5F10105DCDC07E0D4E9012125
:1009F00018F8010B9047206A401C2062381EA7F1AE
:100A00000107F3DC2046AFF30080032011B041E67C
:100A100001694A1C02610878704700B58FB0CDE9C2
:100A200001310021059105497944CDE903101146B2
:100A30006846FFF757FC0FB000BD0000E5FFFFFF61
:100A40000A6802F8010B0A60704710B5436913B1D8
:100A5000AFF3008001E0FFF7DFFB012010BD12784B
:100A600000F124010A7000224A700122EDE71168AA
:100A70004FF0FF32E9E700000048704730000020E7
:100A800030B5B0F10A0271F100034FEA900E4EEA60
:100A9000817EB0EB0E0061EB91014FEA101E4EEA31
:100AA000017E10EB0E0041EB11114FEA102E4EEAC1
:100AB000016E10EB0E0041EB11214FEA104E4EEA91
:100AC000014E10EB0E0041EB1141401841F10001C5
:100AD0004FEAD00040EA41704FEAD1014FEA810469
:100AE00044EA907410EB800544EB01046D1944EB6B
:100AF0000404521BA3414FF0000348BF0A3200D543
:100B000030BD401C41F1000130BD00002DE9F04135
:100B10001F46044603260168072A01F4006004DB2F
:100B200008B116A505E016A503E008B115A500E07B
:100B300015A521F010002060A069C01EA0610FB1B2
:100B4000401EA0612046AFF300804FB1D4E90121DF
:100B500038469047206A401C2062C01C206206E094
:100B6000206AFAE7D4E9012115F8010B9047761EB7
:100B7000F8D22046AFF30080BDE8F0814E414E0030
:100B80006E616E00494E4600696E66002DE9F047C1
:100B9000814616468AB0354878440DC88DE80D0068
:100BA00032487844801C03AC0DC884E80D0041F63F
:100BB0009B300844372190FBF1F290FBF1F5A5F151
:100BC000800501FB12041B3C02D56442012000E0B9
:100BD0000020DFF898A080460027FA44AAF1BE0A58
:100BE0000EE0E0070AD03246684607EB47010123D2
:100BF0000AEB810104F0F9FA8DE8070064107F1C0C
:100C0000002CEED1194F7F44AE3F19E0E80715D014
:100C100007EB04100DF1180A90E80E008AE80E00A8
:100C2000C068F04201D1981908903246012306A904
:100C300003A804F0DAFA03AB83E807006D10641C24
:100C4000002DE3D14FF0010332466946B8F1000FA1
:100C500003A802D004F0B4FA01E004F0C6FAC9E92E
:100C60000001C9F808200AB0BDE8F087D458000098
:100C700000487047100000207546FFF7F9FFAE46A8
:100C800005006946534620F00700854618B020B598
:100C9000FFF79AFABDE820404FF000064FF000073A
:100CA0004FF000084FF0000BAC46ACE8C009ACE8D0
:100CB000C009ACE8C009ACE8C00921F007018D46C5
:100CC000704710B50446AFF300802046BDE81040E1
:100CD000FFF766BA01491820ABBEFEE72600020006
:100CE00070470000B0B582B0044600200190216832
:100CF0008A68D2074FD1886840F00100886040F2CE
:100D00000C00C2F2000000684DF68361C4F21B3192
:100D1000A0FB0101880C01900198A0B10198013855
:100D20000190019878B1019801380190019850B173
:100D3000019801380190019828B10198013801907B
:100D400001980028EAD100F0DFFC21688968C90712
:100D50001CD1054603E000BF8068C0071AD100F02F
:100D6000D3FC411B20680329F6D38168C907F3D15E
:100D7000A06A40F01000A062E06A40F00100E0626A
:100D8000002084F82400012002B0B0BD002002B091
:100D9000B0BD00BF002002B0B0BD0000FEE7000003
:100DA00070470000EFF3108072B600BFFEE700004E
:100DB00010B581B00022009290F82420012A03D1BE
:100DC0000221084601B010BD4B680122062B80F8B5
:100DD000242017D8D0F800C003EB83035A1F1F2329
:100DE000DCF834E003FA02F40B682EEA040403FA98
:100DF00002F22243CCF83420092B03EB430219D929
:100E000036E000BFD0F800C00C2B03EB83021DD8E6
:100E1000233A1F23DCF830E003FA02F40B682EEAD1
:100E2000040403FA02F22243CCF83020092B03EB2E
:100E300043021DD8DCF81030072489689440A3438E
:100E400091401943CCF81010002130E0413A1F23A3
:100E5000DCF82CE003FA02F40B682EEA040403FA2F
:100E600002F22243CCF82C20092B03EB4302E1D9F8
:100E7000DCF80CE01E3A0724896894402EEA04044A
:100E8000914023F001022143102ACCF80C100DD11F
:100E900042F20841C4F20101A1F1080294450DD0CB
:100EA000816A41F020018162012100E000210022DD
:100EB00080F82420084601B010BD00BF0A68120265
:100EC00030D40A68102B42F400020A602CD140F2A0
:100ED0000C01C2F2000109684DF68362C4F21B32B4
:100EE000A1FB0212910C01EB8101490000910099D4
:100EF000E1B10099013900910099C9B10099013916
:100F000000910099B1B1009901390091009999B10E
:100F1000009901390091009900294FF00001E8D1B2
:100F2000C5E700BF0021C2E70021C0E70021BEE7FE
:100F30000021BCE70021BAE70021B8E70068C06CD7
:100F400070470000B0B5002800F0A8800446806A11
:100F500020B121688868C0070BD114E00020E0624E
:100F600084F82400204600F09BF821688868C007B8
:100F700009D0886820F00100886000F0C5FB216876
:100F80008A68D20726D1A06AC0063AD4A06A41F284
:100F9000021290430230A062E069D4E9013240EAD3
:100FA000030C531EB3FA83F35D091346B2F5807F39
:100FB00018BF2B02207D257B01284CEA450030D14B
:100FC00035B3A56A45F02005A562E56A45F001053F
:100FD000E56226E0054602E08868C007D3D000F04D
:100FE00093FB401B21680328F6D38868C007F3D021
:100FF000A06A40F01000A062E06A40F00100E062E8
:10100000A06AA06A40F01000A0620120B0BD00BF3D
:10101000D4F818C04EF60005CFF6FF7505EB4C3539
:101020002B434D68B2F5807F25F4694543EA0503FB
:101030004B608B684FF2FD75CFF6E17503EA05034F
:1010400043EA00038B6001D0012A07D12269002303
:10105000CFF6F07303EB025201E000BF0022CB6A2F
:1010600023F470031A43CA62896840F6FE62CFF621
:101070001F721140814207D10020E062A16A012263
:1010800062F30101A162B0BDA06A40F0100020F03F
:101090000200A062E06A40F00100E0620120B0BD01
:1010A00080B586B0014640F60000C4F20100096830
:1010B00000F5E05291424FF00001CDE9041101D05A
:1010C00006B080BD41F21801C4F202010A6842F480
:1010D00000720A600A6802F400720192019A0A68BA
:1010E00042F004020A60096801F0040101910199CB
:1010F000022102910321039102A900F0F1F906B047
:1011000080BD0000F0B581B000270D460446009771
:1011100000F0FAFA21688A68D20543D40646486886
:10112000C00503D4C86A10F4700F45D040F20C001B
:10113000C2F200000768022000F066FF216844F652
:1011400024130A69B7FBF0F0C2F292431A4206D1A7
:10115000CA6844F62413C0F292031A425ED00A69A8
:1011600042F29243C1F249231A4207D1CA6842F2BD
:101170009243C0F249031A4200F0C0800A6949F262
:101180004923C0F224031A424FF0FC0257D1CF6822
:101190001F4208BF5422009B02FB00F7BB4253D3FF
:1011A000C3E000BFA06A40F02000A06284F8247071
:1011B000012001B0F0BD00BF0868800700F1B580D4
:1011C000681C00F0A880FDB90868800772D508681F
:1011D000800700F1AA80086880076BD5086880073F
:1011E00000F1A3800868800764D50868800700F1D3
:1011F0009C80086880075DD508688007E4D594E086
:101200000868800700F1918000F07EFA801B216859
:10121000A842F5D908688007F2D44BE00A6942F287
:101220009243C1F249231A424FF0290207D1CB68F9
:1012300042F29247C0F249073B4208BF1422009B8A
:1012400002FB00F7BB4270D2681C4FD055BB009820
:10125000B8422FD30098013000900098B84264D271
:101260000098B84226D30098013000900098B84208
:101270005BD20098B8421DD30098013000900098CE
:10128000B84252D20098B84214D30098013000906E
:101290000098B842DBD348E00098013000900098F5
:1012A000B84233D200F030FA801BA842F4D900983B
:1012B000B842F1D2A06A40F00400A062002084F895
:1012C0002400032001B0F0BD009801300090009888
:1012D000B8422AD20098013000900098B84224D237
:1012E0000098013000900098B8421ED2009801305A
:1012F00000900098B842E7D317E000BF5422009B4B
:1013000002FB00F7BB429FD30FE000BF21680CE057
:101310000868800709D40868800706D40868800731
:101320005CBF08685FEA8070F2D56FF01200086059
:10133000A06A40F40070A062886800F46020B0F5F4
:10134000602F01D1207B18B1002001B0F0BD00BF9B
:10135000A06A20F48070A062A06AC004F4D4A06ADD
:1013600040F00100A062002001B0F0BD10B50446BD
:1013700090F82400012804BF022010BD012084F849
:1013800024002046FFF7AEFC20B1002184F8241091
:1013900010BD00BF42F2044C2068A16AC4F2010CE7
:1013A00040F2013291430CF57F7201F58071904259
:1013B000A16233D0A16A21F48011A162416849057C
:1013C00004D5A16A012363F30D31A162A16A002350
:1013D000C9044FF0000144BFE16A21F00601E16257
:1013E0006FF0020184F824300160816801F460210B
:1013F000B1F5602F06D190420AD1DCF8001011F44B
:10140000702F05D0816841F480118160002010BDEB
:10141000816841F4A0018160002010BDDCF800105B
:1014200011F4702FC6D0A16A41F48011A162DCF8DA
:1014300000104905C5D4C9E7B0B5044690F82400AA
:10144000012804BF0220B0BD0121206884F82410C7
:101450008168C90709D0816821F00101816000F02D
:1014600053F921688968C9070ED1214651F8280F20
:1014700041F2011220EA0202002042F001020A6059
:10148000002184F82410B0BD054602E08068C00742
:10149000EBD000F039F9411B20680329F6D38168AD
:1014A000C907F3D0A06A214640F01000A06251F8AD
:1014B0002C2F0120E1E70000B0B5044600F024F92C
:1014C000054640F20400C2F200000078611C18BF1B
:1014D000044400BF00F018F9401BA042FAD3B0BD8D
:1014E0002DE9F04F82B00E68002E00F0038141F22A
:1014F0000042C4F20102042340F2004E904208BFB1
:1015000003234FF6FF7CC4F2010E00930024012355
:10151000C1F2100C4FF0000A4FF0000949E000BF83
:10152000012704F00C030F229A402BEA020207FA6B
:1015300003F34FEA9A051A4346F82520D1F804B080
:1015400040F20C455FEACB22DEF8082054BF22EAC5
:10155000080242EA0802C4F20105CEF808202A680F
:101560005FEA8B2354BF22EA080242EA08022A609B
:101570005FEA8B33DEF8042054BF22EA080242EA15
:1015800008025FEACB33CEF80420DEF800204FF0EB
:10159000010354BF22EA080242EA0802CEF8002002
:1015A0000E680AF1010A36FA0AF204F1040400F0A6
:1015B000A18003FA0AF816EA080FF1D04E686645D2
:1015C00012DC122E56D8DFE806F0350B454955558A
:1015D00055555555555555555555554D510000BF07
:1015E000D1F80C9046E000BF4FF6FF72C1F2210225
:1015F00096420FDC0022C1F2110296421AD000225C
:10160000C1F21202964215D00022C1F22102964286
:1016100010D02FE00022C1F2220296420AD000220E
:10162000C1F23102964205D00022C1F23202964246
:1016300020D100BF8A684AB1012A14BFC0F81480C3
:10164000C0F810804FF0080914E000BF4FF0040903
:1016500010E000BFCA6802F108090BE04FF0000972
:1016600008E000BFCA6802F1040903E0CA6802F199
:101670000C0900BF22460646BAF1080F24BF203AE3
:10168000043637680F25954027EA050509FA02F266
:101690002A433260CA79D2067FF582AF41F218033D
:1016A000C4F202031A68AEF57E7642F001021A60B7
:1016B0001A6802F001020192019A2AF0030256F818
:1016C00002B040F60002C4F20102904210D040F68F
:1016D0000042C4F2010290423FF422AF41F2000204
:1016E000C4F20102009F904208BF022719E700BF21
:1016F000002716E702B0BDE8F08F0000002A08BFFF
:10170000090401617047000040F23C50C2F2000041
:101710000068704770B5B8B3044690F83D0028B92A
:10172000002084F83C00204600F098FB242084F838
:101730003D002068016821F001010160016841F469
:1017400000410160016821F40041016000F03AFEAF
:1017500048F28041C0F21E0140F60013D4F804E0C4
:1017600088424FF00001C0F23D0348F2A16C4FF0F7
:10177000000238BF01219842C0F2010C38BF01229B
:10178000E64538BF0A460AB1012070BD4DF68361B7
:10179000C4F21B31A0FB01122168950C4B684FF479
:1017A000967623F03F0343EA9243754344F6D356BB
:1017B0004B60C1F262060B6AA5FB0656B50923F021
:1017C0003F03E64538BF950C6A1C1A430A62CA6992
:1017D00048F2A0664CF6FF73C0F20106B64522EA55
:1017E00003020BD801384FEA4E03B0FBF3F001308F
:1017F0006FF31F30042898BF04201EE0A36801384F
:1018000063B119230EFB03F3B0FBF3F001306FF368
:101810001F3078B100F5804008E000BF0EEB4E03AA
:10182000B0FBF3F001306FF31F3028B100F500403A
:1018300003E000BF012000E001201043C8610868F8
:10184000D4E9072320F0C0001043184308608868DB
:1018500048F2FF3204F10C0690434CCE184310437B
:10186000A5698860C86820F0FF0030432843C8603D
:10187000086840F00100086000202021206484F8FE
:101880003D10206384F83E0070BD00002DE9F04754
:1018900084B0044600201F46164689460290FFF792
:1018A00033FF94F83D10202920D10546206800BF61
:1018B0008169890716D5FFF727FF411B20681A2980
:1018C000F6D381698907F3D500202021206384F8AD
:1018D0003D1084F83E00216C41F02001216484F821
:1018E0003C0003E094F83C10012903D1022004B02D
:1018F000BDE8F087012184F83C100168C90703D1D5
:10190000016841F0010101600168DDF8308021F4D7
:1019100000610160222184F83D10102184F83E10FE
:101920000021216466626785618D0227C0F201078C
:101930002185A7F10211E162E16A026811F5803F99
:1019400042F48062026018BF01293DD1016841F470
:101950008071016020464FF001110022434600953E
:1019600001F096F950B120680068C00544BF4FF4FB
:1019700000702064012004B0BDE8F0872069B0F554
:10198000804F27D149F00100C0B22168424608616A
:10199000204639462B4601F065FA0028EAD1208D11
:1019A00002284BD001285FD0002840F0738000202F
:1019B000039020684169039181690391039901684B
:1019C00041F40071016071E00829BFD0216B112939
:1019D000BCD0BFE7062000EAD916206806F1F00166
:1019E0000161B91D204642462B4601F03BFA002812
:1019F000C0D120685FFA89F101612046394642462C
:101A00002B4601F02FFA0028B4D100200390206863
:101A1000002241694346039181690391039901685A
:101A200041F48071016020464FF00111009501F0F2
:101A30002FF9002897D146F0F100A6E72068016849
:101A400041F400610160EFF3108072B60020039052
:101A5000206841690391816903910399016821F428
:101A60008061016062B621E02068016821F4806134
:101A70000160EFF3108072B6002003902068416986
:101A80000391816903910399016841F40071016038
:101A900062B60BE02068016841F4806101600021BA
:101AA000039141690391806903900398208D002878
:101AB00000F0CC8040F20C094BF2895A0237C2F296
:101AC0000009C1F2F84A23260EE000BF1069087031
:101AD000606A218D01306062481E2085618D013968
:101AE0006185010400F0B28080B203280CD802287E
:101AF0002CD001284AD1204641462A4601F022FA3C
:101B0000002800F09F8035E7204641462A4601F034
:101B100019FA00287FF42EAF2068616A0069087006
:101B2000606A2268411C208D616201382085638DC6
:101B3000013B638553695B07D3D580B20328C5D1C8
:101B4000106820F480601060C0E700BF204639466E
:101B500000224346009501F09BF800287FF40AAF6D
:101B6000EFF3108072B62068616A026842F4007276
:101B7000026000690870606A218D01306062481E51
:101B80002085608D0138608562B65BE0204639466D
:101B900000224346009501F07BF800287FF4EAAE6E
:101BA0002068016821F480610160EFF3108072B653
:101BB0002068616A00690870606A218D013001390E
:101BC00060622185618D01396185D9F80010C908ED
:101BD000A1FB0A12110A7143029102990139029183
:101BE000029900293ED021684A6952071AD4029905
:101BF000013902910299A9B321684A69520711D4A7
:101C0000029901390291029961B321684A69520728
:101C100008D4029901390291029919B321684A69DD
:101C20005207DAD50A6842F400720A600969017045
:101C3000606A218D01306062481E2085608D013808
:101C4000608562B62068616A006940E7202084F8F8
:101C50003D00002084F83E0084F83C0004B0BDE85C
:101C6000F08700BF00202021206384F83D1084F815
:101C70003E00216C41F02001216462B684F83C00F2
:101C8000012004B0BDE8F0872DE9F04383B01E4683
:101C9000174689460446FFF737FD94F83D10202982
:101CA00020D10546206800BF8169890716D5FFF756
:101CB0002BFD411B20681A29F6D381698907F3D5CA
:101CC00000202021206384F83D1084F83E00216C20
:101CD00041F02001216484F83C0003E094F83C10BA
:101CE000012903D1022003B0BDE8F083012184F86B
:101CF0003C100168C90703D1016841F0010101608E
:101D0000016840F2020821F400610160212184F899
:101D10003D10102184F83E10002121646762668521
:101D2000618DC0F201082185A8F10211E162E16A2A
:101D30000A9E11F5803F18BF01291DD1016841F4A9
:101D40008071016020464FF001110022334600955A
:101D500000F09EFF50B120680068C00544BF4FF4FA
:101D600000702064012003B0BDE8F0832069B0F565
:101D7000804F07D1FE2015E00829DFD0216B122902
:101D8000DCD0DFE7062000EAD9102168F0300861D6
:101D900008F10601204632462B4601F063F8002880
:101DA000E0D1FF20216800EA090008612046414691
:101DB00032462B4601F056F80028D3D1002002907D
:101DC00020684169029180690290029806E000BF94
:101DD000204631462A4600F0FBFE18BB208D68B332
:101DE000204631462A4601F0F5F8D8B9606A2168E4
:101DF000024612F8013B0B616262628D013A628514
:101E0000228D531E23854F697F07E1D51B04DFD048
:101E1000437802300B616062608D01386085901EEE
:101E20002085D5E7206C04289CD12068016841F406
:101E300000710160012003B0BDE8F08320680168F3
:101E400041F400710160202084F83D00002084F8F6
:101E50003E0084F83C0003B0BDE8F08310B586B0C6
:101E600045F200410068C4F2000100228842049259
:101E700002D006B010BD00BF41F21804C4F2020443
:101E8000206840F008002060206800F00800019001
:101E90000198C0200290122003900320059001F5C4
:101EA000384002A9FFF71CFB606840F40010606036
:101EB000606800F400100190019806B010BD0000A9
:101EC00040F2040040F23C51C2F20000C2F20001B4
:101ED00000780A68104408607047000080B542F23C
:101EE0000000C4F20200016841F01001016003200B
:101EF00000F07AF80F2000F005F800F027F8002035
:101F000080BD000070B540F20406C2F2000640F247
:101F10000C013278C2F200014FF47A730968B3FB06
:101F2000F2F20446B1FBF2F1084600F04DFC0F2C32
:101F30004FF0010508D838B94FF0FF302146002294
:101F4000002500F025F87460284670BD82B041F28B
:101F50001800C4F202000168022241F00101016090
:101F6000016801F0010101910199416841F080513E
:101F70004160406800F08050009000980420C4F256
:101F80000100016862F31A61016002B0704700004D
:101F900010B54EF60C5CCEF2000CDCF80030C3F34A
:101FA000022E8EF00704042C28BF0424BEF1030384
:101FB0004FF0FF3E0EFA04F438BF0023A1439940CE
:101FC0000EFA03F39A43114300F00F0200F160434D
:101FD0000901043A03F564436244002848BF02F152
:101FE0000C03197010BD00004EF60C51CEF200012A
:101FF0000A684FF6FF031A4060F30A2242F080603D
:1020000040F0FD700860704780B5012818D00228A4
:1020100036D0102832D141F20401C4F202010A681C
:1020200051F8040CC00129D5C2F383402DA3185CDC
:10203000D2033DD440F60012C0F23D02504343E0CB
:1020400041F20400C4F20200C16940F202320A40C7
:10205000B2F5817F04BF4FF4004080BD01F44071B0
:10206000B1F5407F1CD0B1F5007F07D1006A49F679
:102070004041800701EAE07080BD00BF002080BDC4
:1020800000F0B4F941F20401C4F20201096802222D
:10209000C1F3813102EB4101B0FBF1F080BD00BF23
:1020A00050F8040C4FF22441800301EAE07080BD37
:1020B0000A6810A3C2F340429A5C41F20023C0F2C6
:1020C0007A03B3FBF2F250430968490248BF80BD6E
:1020D0004AF6AB214000CAF6AA21A0FB010148083C
:1020E00080BD00BF02030405060708090A0B0C0D9A
:1020F0000E0F1010010200002DE9F04182B00446DD
:10210000007841F21C06C007C4F202064AD03068CB
:1021100010F0805808D1306840F08050306030684E
:1021200000F080500190019847F20007C4F20007C8
:102130003868C00512D4386840F480703860FFF702
:10214000E3FA05463868C00508D4FFF7DDFA401BFE
:102150006428F7D9032002B0BDE8F081706810F45C
:10216000407012D0616801F4407188420DD07068EF
:1021700040F24042C4F24222012320F44071136035
:102180000023C007136071602AD17068616820F471
:1021900040700843B8F1000F706003D1306820F040
:1021A000805030602068810707D556F8181CA26857
:1021B00021F44041114346F8181CC00604D4002005
:1021C00002B0BDE8F08100BF56F8180CE16820F4B9
:1021D0008000084346F8180C002002B0BDE8F081EA
:1021E000FFF792FA054641F2883700BF7068800712
:1021F000CBD4FFF789FA401BB8424FF00300F5D962
:10220000EBE700002DE9F04381B0002800F0858065
:1022100042F20008C4F202080446D8F800000D4655
:1022200000F0070088420CD2D8F8000020F0070028
:102230002843C8F80000D8F8000000F00700A842C2
:102240006BD1206841F204098107C4F2020917D555
:10225000410705D5D9F8001041F4E061C9F8001034
:10226000010705D5D9F8001041F46051C9F80010F4
:10227000D9F80010A26821F0F0011143C9F800104C
:10228000C00741D1D8F8000000F00700A8420CD9DF
:10229000D8F8000020F007002843C8F80000D8F85C
:1022A000000000F00700A84237D12068410707D599
:1022B000D9F80010E26821F4E0611143C9F8001078
:1022C000000708D5D9F80000216920F4605040EAE1
:1022D000C100C9F80000D9F8002002F00C0008285D
:1022E00041F20020C0F27A0050D146F6CC43C2F34E
:1022F0008341C0F60003595CD2033BD440F6001082
:10230000C0F23D00484341E0606802280AD001283D
:102310002AD159F8041C890308D4012001B0BDE872
:10232000F08300BF59F8041C8901F6D5D9F80010D4
:1023300021F003010843C9F80000FFF7E5F906465C
:1023400041F28837D9F80000616800F00C00B0EB6A
:10235000810F97D0FFF7D8F9801BB842F2D903203C
:1023600001B0BDE8F08300BF59F8041C8907D4D53B
:10237000DCE700BFD9F8002046F2A043C2F3404298
:10238000C0F600039A5C4843B0FBF2F0D9F80010A5
:1023900046F28842C1F30311C0F60002515C40F2DC
:1023A0000C0220FA01F140F20800C2F200000068BD
:1023B000C2F200021160FFF7A5FD002001B0BDE8E8
:1023C000F083000040F20C0041F20401C2F2000070
:1023D000C4F202010068096846F29842C1F3022182
:1023E000C0F60002515CC8407047000040F20C008B
:1023F00041F20401C2F20000C4F20201006809685F
:1024000046F29842C1F3C221C0F60002515CC840B6
:10241000704700002DE9F04182B0002868D00446E2
:10242000007841F20006C007C4F2020625D07068A9
:1024300000F00C0004281BD0706800F00C00082885
:1024400002D17068C00313D46068002800F068816E
:10245000B0F5A02F00F07C81B0F5803F00F07C81CA
:10246000306820F480303060306820F4802076E1DD
:102470003068800301D56068D0B32078800718D514
:10248000706810F00C0F07D0706800F00C0008287E
:102490006ED17068C0036BD43068800702D52069A4
:1024A000012825D13068616920F0F80040EAC100B8
:1024B0003060207800071FD42078400732D4E569C7
:1024C00095B1706800F00C00082840F08F80012D55
:1024D0000ED07068216A00F480328A4208D1616AA5
:1024E00000F47010884203D1002002B0BDE8F081F2
:1024F000012002B0BDE8F081A069002862D0002070
:10250000C4F242200121C0F88014FFF7FDF805460F
:10251000706A800700F18C80FFF7F6F8401B0228F4
:10252000F6D92AE1F06910F0805808D1F06940F03E
:102530008050F061F06900F080500090009847F200
:102540000007C4F200073868C00529D4386840F491
:1025500080703860FFF7D8F8054600BF3868C005BE
:102560001ED4FFF7D1F8401B6428F7D905E100BF5E
:102570002069002840F20000C4F2422000F082806E
:1025800001210160FFF7C0F8054600BF30688007F1
:102590003FF588AFFFF7B8F8401B0228F6D9ECE00A
:1025A000E068002800F08080052800F0978001286E
:1025B00000F09880306A20F001003062306A20F02C
:1025C000040092E00020C4F242200021C0F88014F0
:1025D000FFF79AF8054600BF706A80077FF56CAF79
:1025E000FFF792F8401B0228F6D9C6E00027C4F294
:1025F000422700203866FFF787F8022D05460BD1E9
:102600003068800140F1BE80FFF77EF8401B022851
:102610004FF00300F4D968E7306880017FF564AFBC
:10262000FFF772F8401B02284FF00300F4D95CE773
:1026300040F20C00C2F20000006844F6D351C1F22F
:102640006201A0FB0101480A019000BF00BF019890
:10265000411E002801913FF42FAF00BF0198411E99
:10266000002801913FF428AF00BF0198411E0028C7
:1026700001913FF421AF00BF0198411E0028019154
:10268000E4D119E700210160FFF73EF8054600BFDD
:10269000306880077FF50DAFFFF736F8401B022842
:1026A0004FF00300F4D920E7306A20F001003062D7
:1026B000306A20F004003062FFF726F8054641F248
:1026C000883700BF306A800720D5FFF71DF8401B10
:1026D000B8424FF00300F5D907E700BF306A40F079
:1026E00004003062306A40F001003062FFF70CF8FD
:1026F000054641F2883700BF306A800706D4FFF7ED
:1027000003F8401BB842F7D937E000BFB8F1000F1B
:102710007FF4D5AEF06920F08050F061CFE600BFC5
:10272000306820F480303060306820F480203060E1
:10273000FEF7EAFF054600BF306880037FF59DAED7
:10274000FEF7E2FF401B64284FF00300F4D9CCE60B
:10275000306840F480203060306840F48030306071
:10276000FEF7D2FF054600BF306880033FF585AE17
:10277000FEF7CAFF401B6428F6D9032002B0BDE86B
:10278000F08100BF206AB0F5803F05D17168A26872
:1027900021F40031114371607168626A21F474118F
:1027A00011430843706001203866FEF7ADFF044610
:1027B000306880013FF598AEFEF7A6FF001B0228A7
:1027C0004FF00300F4D990E6411E0020B0EB116FEA
:1027D0001CBF012070474EF21002CEF20002516081
:1027E0004EF62351CEF20001F0230B7007219060CA
:1027F00011607047002804BF0120704710B50446DF
:1028000090F8410028B9002084F84000204600F0EC
:1028100063F8242084F841002068D4E90212C368D8
:1028200023F40053C360036923F440531A43026145
:10283000D4E904231143C268194341F20C639A435B
:102840001143C1604169A26921F44071114343F60B
:102850000002C4F201029042416103D0FFF7B2FDD1
:1028600002E000BFFFF7C2FD6268192148439100F2
:10287000B0FBF1F048F21F51C5F2EB11A0FB0123B0
:102880005A094FF69C73C0F6FF7302FB0300322314
:1028900003EB0010A0FB0101F02303EA51132068B1
:1028A00003EB0212C1F3431111448160016921F469
:1028B00090410161416921F02A014161C16841F4FF
:1028C0000051C16000202021606484F8411084F828
:1028D0004210606310BD000070B586B040F6000481
:1028E000C4F20104006804F54051002688420496B1
:1028F00002D006B070BD00BF41F21800C4F2020061
:10290000016802AD41F480410160016801F4804139
:1029100001910199016841F00401016000682946B4
:1029200000F00400019001984FF400700290022022
:102930000390032005902046FEF7D2FD4FF48060FF
:10294000CDE90206204629460496FEF7C9FD06B0E9
:1029500070BD00002DE9F04381B0044690F84100BD
:10296000202840F0B180884600294FF0010000F097
:10297000D6801646002A00F0D28000206064212014
:102980001D4684F84100FEF7BFFEA684E684A168D8
:102990000646B1F5805F03D12069002800F09880D9
:1029A00047464FF00008E18C2068002900F096802F
:1029B00005F101090BE000BF47B317F8011B4160A7
:1029C000E18C0139E184E18C002900F08780016805
:1029D0000906F1D4B9F1000F0AD0EDB1FEF794FE6B
:1029E000801BA84218D8206801680906F6D5E3E7DD
:1029F00001680906E0D4016809065CBF01685FEA66
:102A00000161D9D401680906F2D5D5E738F8021B6F
:102A100000276FF35F21D2E7206850E8030F216899
:102A200020F4D07041E80302BAB3206850E8030FE5
:102A3000216820F4D07041E8030272B3206850E8A6
:102A4000030F216820F4D07041E803022AB3206804
:102A500050E8030F216820F4D07041E80302002AF7
:102A6000DAD11AE0206850E8050F216820F0010053
:102A700041E80502DAB1206850E8050F216820F02E
:102A8000010041E8050292B1206850E8050F216875
:102A900020F0010041E805024AB1206850E8050F26
:102AA000216820F0010041E80502002ADAD1202047
:102AB00084F8410084F84200002084F8400003209C
:102AC00001B0BDE8F08300BF022001B0BDE8F08393
:102AD0000027E18C206800297FF46AAF016849066D
:102AE00019D4FDB1691C0DD10168490613D40168E0
:102AF00049065CBF01685FEA41610CD40168490680
:102B0000F2D508E0FEF700FE801BA8420AD8206834
:102B100000684006F6D5202084F84100002001B06E
:102B2000BDE8F083206850E8030F216820F4D070DE
:102B300041E80302002A3ED0206850E8030F2168D4
:102B400020F4D07041E80302AAB3206850E8030FD4
:102B5000216820F4D07041E8030262B3206850E895
:102B6000030F216820F4D07041E80302002AD9D174
:102B700021E000BF206850E8050F216820F0010027
:102B800041E80502002A3FF492AF206850E8050FA3
:102B9000216820F0010041E80502002A3FF487AFD8
:102BA000206850E8050F216820F0010041E8050287
:102BB000002A3FF47CAF206850E8050F216820F020
:102BC000010041E80502002AD4D170E7FEE70000C9
:102BD00070B50368044653F8140F400711D40E462D
:102BE000481C29D086BB00BF1868400527D4FEF7D3
:102BF0008BFD236853F8140F400739D51868400738
:102C0000F2D5002070BD00BF18684007F9D41868DD
:102C1000400514D418684007F3D4186840050ED452
:102C200018684007EDD41868400508D418684007B4
:102C30004FF0000048BF70BD18684005E4D56FF440
:102C400080601860042014E0154603E053F8140F68
:102C50004007D6D418684005F1D4FEF755FD401B57
:102C60002368B042F2D958694007EFD4202000E031
:102C7000202000212022216384F83D2084F83E108A
:102C8000226C10432064012084F83C1070BD0000C9
:102C90002DE9F041054600681E46144601F47F0206
:102CA00001338FB242D0DDF81880B2F5803F40F09A
:102CB000878040693840C01BB0FA80F04009A042CC
:102CC00040F0C8804EB924E040693840C01BB0FADB
:102CD00080F04009A04240F0BD80FEF715FDA0EB5A
:102CE00008012868B142EFD941693940C91BB1FADE
:102CF00081F14909A142E7D19BE000BF406938401A
:102D0000C01BB0FA80F04009A0424FF0000040F034
:102D1000A680FEF7F9FC286841693940C91BB1FA61
:102D200081F14909A142E9D183E000BFB2F5803FBA
:102D300024D100BF41693940C91BB1FA81F1490969
:102D4000A14240F0878041693940C91BB1FA81F145
:102D50004909A14240F07E8041693940C91BB1FA5E
:102D600081F14909A14275D141693940C91BB1FAC4
:102D700081F14909A142DDD06CE000BF8169394091
:102D8000C91BB1FA81F14909A14263D18169394076
:102D9000C91BB1FA81F14909A1425BD1816939406E
:102DA000C91BB1FA81F14909A14253D18169394066
:102DB000C91BB1FA81F14909A142DFD04AE000BF45
:102DC00080693840C01BB0FA80F04009A04241D170
:102DD00046B923E080693840C01BB0FA80F0400952
:102DE000A0423BD1FEF790FCA0EB08012868B1425D
:102DF000F0D981693940C91BB1FA81F14909A14271
:102E0000E8D116E080693840C01BB0FA80F0400974
:102E1000A0424FF0000018BFBDE8F081FEF774FC3F
:102E2000286881693940C91BB1FA81F14909A14279
:102E3000E8D100202021286385F83D1085F83E0068
:102E4000296C41F02001296485F83C000120BDE88F
:102E5000F08100BF0020BDE8F08100BF0020BDE888
:102E6000F0810000F0B581B0044600681D4643695A
:102E70008FB203EA0701B94202D1002001B0F0BDD0
:102E800041691646013201F4806125D0002940D104
:102E9000CEB100BFFEF738FC411B2068B14203D918
:102EA00041693940B9424BD141693940B942E4D016
:102EB00041694905EED52CE041693940B942DCD081
:102EC0004169490525D4FEF71FFC20684169394056
:102ED000B942F1D0202024E0D9B941693940B94242
:102EE000CBD04169490514D441693940B942C4D0B5
:102EF000416949050DD441693940B942BDD04169A4
:102F0000490506D441693940B942B6D041694905FD
:102F1000E3D5016841F4007101606FF480614161A3
:102F2000042000212022216384F83D2084F83E10F3
:102F3000226C1043206484F83C10012001B0F0BDE5
:102F40002020EEE770B504460068154650F8143F9F
:102F50005A063DD40E4629B926E000BF50F8141F8A
:102F6000490635D40168C90621D4FEF7CDFB411BC3
:102F70002068B142F2D941694906EFD400202021EE
:102F8000206384F83D1084F83E00206C40F020005F
:102F900018E000BFFEF7B8FB206850F8141F490680
:102FA000ECD50168490613D40168C906F2D56FF063
:102FB0001001016000202021206384F83D1084F876
:102FC0003E00206C2064002084F83C00012070BD8D
:102FD000002070BD70B50368044653F8140F000656
:102FE00011D40E46481C29D086BB00BF1868400586
:102FF00027D4FEF789FB236853F8140F000639D550
:1030000018680006F2D5002070BD00BF18680006E1
:10301000F9D41868400514D418680006F3D4186869
:1030200040050ED418680006EDD41868400508D491
:10303000186800064FF0000048BF70BD18684005D2
:10304000E4D56FF480601860042014E0154603E0B6
:1030500053F8140F0006D6D418684005F1D4FEF7D3
:1030600053FB401B2368B042F2D958690006EFD4E5
:10307000202000E0202000212022216384F83D2030
:1030800084F83E10226C10432064012084F83C1028
:1030900070BD0000B0B584B040F2704042F2004113
:1030A000C2F20000C4F2010100244FF460220125A5
:1030B00004730475C261C0E9001484600561FDF702
:1030C00041FF002818BFFDF76DFE40F27040C2F2CC
:1030D000000001A9CDE901550394FDF769FE002820
:1030E00018BFFDF75FFE04B0B0BD000070B584B03E
:1030F00041F21800C4F20200016841F2000441F0FC
:10310000100101600168C4F2010401F01001009196
:1031100000990168002241F02001016001684FF42C
:10312000005501F02001009100990168002641F04E
:1031300004010160016801F0040100910099016837
:1031400041F00801016000684FF4005100F00800F0
:10315000009000982046FEF7D1FA01200095CDE9B5
:10316000010602206D46039020462946FEF7B8F975
:103170002020CDE90006A4F5806029460296FEF7DE
:10318000AFF904B070BD000080B540F2A04045F238
:103190000041C2F20000C4F2000148F2A062002324
:1031A0004FF4804CC0F2010280E80E00C0E9033CFD
:1031B000C0E90533C0E90733FEF7ACFA002808BFC1
:1031C00080BDBDE88040FDF7EDBD000080B540F258
:1031D000F44043F60001C2F20000C4F201010023F2
:1031E0004FF00C0C4FF4165280E80E00C0E9033388
:1031F000C0E905C3C361FFF7FDFA002808BF80BD21
:10320000BDE88040FDF7CEBDFEE70000FEE7000010
:1032100080B540F27000C2F200004FF48061FDF70B
:1032200025F980BD2DE9F04F8CB0824640B240F2C6
:10323000700914460028C2F20009019311D46218E3
:10324000D3B23F2B0DD802F0F80309EB031302F0C1
:103250000702012713F80A6007FA02F2324303F863
:103260000A20002811D40A1BD3B23F2B0DD802F03C
:10327000F80309EB031302F00702012713F80A60B1
:1032800007FA02F2324303F80A203F2911D804EB6F
:103290000A0252B2002A0CD401F0F806D2B209EBAD
:1032A000061601F007030127B55C07FA03F32B4369
:1032B000B3543F2911D8AAEB040252B2002A0CD40D
:1032C00001F0F806D2B209EB061601F00703012758
:1032D000B55C07FA03F32B43B354019AE2B162429F
:1032E000A24219DA002817D4012003E0013213B2F8
:1032F000A34211DA5318DFB23F2FF7D803F0F807D3
:1033000009EB071703F0070317F80A6000FA03F345
:10331000334307F80A30E9E7002C00F07F830022EE
:10332000C4F101004FF0010B08920022CDF800A07B
:103330000EE000BF0898049A0130089006980A9C95
:1033400000B200EB4200059A0130A24280F266838F
:103350000B92571C06900004A4F1010210B23B46E8
:103360004CBF22461B1A07EB0A0040B2002802EBB2
:10337000010E04930FD45FFA8EF33F2B0BD80EF09F
:10338000F806C3B209EB06160EF00705F45C0BFA5B
:1033900005F52543F554079010B27E1800EB0A029C
:1033A000F3B23F2B4FFA82FC03930FD8BCF1000F0E
:1033B0000CD406F0F8045FFA8CF209EB041406F062
:1033C0000705A35C0BFA05F51D43A554AAEB0702FC
:1033D00052B20296002AA1EB000609920FD4F2B273
:1033E0003F2A0CD8099A06F0F804D2B209EB04146B
:1033F00006F00705A35C0BFA05F51D43A554CD1B8C
:10340000AAEB0004EAB23F2A4FFA84F80A90059723
:103410001BD8B8F1000F18D440F2700005F0F8097D
:10342000C2F200005FFA88F700EB091305F0070A03
:1034300013F807900BFA0AF0DDF800A040EA090043
:1034400040F27009C2F20009D855079800281BD431
:10345000F0B23F2818D8079840F2700406F0F8033D
:10346000C2F20004C0B204EB031306F0070913F81C
:1034700000A00BFA09F740F2700947EA0A07DDF8E5
:1034800000A0C2F200091F543F2A0FD8BCF1000F60
:103490000CD405F0F8025FFA8CF009EB021205F08B
:1034A0000703155C0BFA03F32B431354099C002C00
:1034B0000FD45FFA8EF03F280BD80EF0F802E0B27E
:1034C00009EB02120EF00703175C0BFA03F33B4300
:1034D000135403983F2810D8B8F1000F0DD4029B65
:1034E0005FFA88F003F0F80209EB021203F0070319
:1034F000175C0BFA03F33B431354019800283FF485
:1035000019AF0A9A504200B2824240F31581079FD8
:103510005FFA84F9002F00F1D5800A9B5FFA87FEDD
:10352000DA0740D04218D0B23F281AD802F0F80388
:1035300002F0070540F27002C2F2000202EB031231
:1035400012F80E700BFA05F347EA0305002C02F897
:103550000E5006D43F2804D812F80900184302F888
:103560000900721CD0B23F281AD802F0F80302F00A
:10357000070540F27002C2F2000202EB031212F8D9
:103580000E700BFA05F347EA0305002C02F80E5003
:1035900006D43F2804D812F80900184302F809009D
:1035A0000A9BC3F102004FF0FF3202EB430292B2DA
:1035B000032A07D2C0E000BF04300A9A00B290424A
:1035C00080F2BA804318DAB23F2A1AD840F2700467
:1035D00003F0F805C2F2000404EB051503F0070739
:1035E000099C15F80E600BFA07F73E43002C05F80E
:1035F0000E6006D43F2A04D815F809203A4305F88E
:1036000009205D1CEAB23F2A1AD840F2700405F086
:10361000F806C2F2000405F0070704EB0615099C42
:1036200015F80E600BFA07F73E43002C05F80E6004
:1036300006D43F2A04D815F809203A4305F8092092
:103640009D1CEAB23F2A1AD840F2700405F0F80631
:10365000C2F2000405F0070704EB0615099C15F8F3
:103660000E600BFA07F73E43002C05F80E6006D4F7
:103670003F2A04D815F809203A4305F809200333F6
:10368000DAB23F2A98D803F0F80503F0070640F2B3
:103690007003C2F2000303EB051313F80E700BFA6C
:1036A00006F547EA0506002C03F80E603FF584AFE7
:1036B0003F2A3FF681AF13F809202A4303F8092077
:1036C0007AE700BF002C37D40A9BDA072CD00844D5
:1036D000C2B23F2A10D840F2700300F0F802C2F2E2
:1036E000000303EB021200F0070012F809300BFA96
:1036F00000F0184302F80900701CC2B23F2A10D82B
:1037000040F2700300F0F802C2F2000303EB021271
:1037100000F0070012F809300BFA00F0184302F825
:1037200009000A9BC3F102004FF0FF3202EB430293
:1037300092B2032A80F00E8108980B9AC743D007F3
:1037400040F270095FFA88FE5FFA8CF0C2F200095D
:1037500050D1B8F1000F07EB01020FD4D7B23F2FC1
:103760000CD802F0F80709EB071702F0070617F864
:103770000E500BFA06F62E4307F80E60BCF1000F50
:103780000DD4D7B23F2F0AD802F0F80709EB07177C
:1037900002F007023E5C0BFA02F232433A54089AF6
:1037A000B8F1000FA1EB02020FD4D7B23F2F0CD813
:1037B00002F0F80709EB071702F0070617F80E509A
:1037C0000BFA06F62E4307F80E60BCF1000F0DD47D
:1037D000D7B23F2F0AD802F0F80709EB071702F01B
:1037E00007023E5C0BFA02F232433A54089AC2F1E5
:1037F00001070B9A52000132032A08D29AE500BF52
:103800000B9B2AB2934207F104077FF793ADB8F1FF
:10381000000F07EB01050FD4EAB23F2A0CD805F0E0
:10382000F80209EB021205F0070612F80E400BFA37
:1038300006F6264302F80E60BCF1000F0DD4EAB282
:103840003F2A0AD805F0F80209EB021205F0070634
:10385000145C0BFA06F626431654B8F1000F05F176
:1038600001020FD4D6B23F2E0CD802F0F80609EBB5
:10387000061602F0070416F80E300BFA04F4234380
:1038800006F80E30BCF1000F0DD4D3B23F2B0AD88E
:1038900002F0F80309EB031302F007021C5C0BFAB9
:1038A00002F222431A54B8F1000F05F102020FD4BC
:1038B000D3B23F2B0CD802F0F80309EB031302F04C
:1038C000070413F80E500BFA04F42C4303F80E40CF
:1038D000BCF1000F0DD4D3B23F2B0AD802F0F8038D
:1038E00009EB031302F007021C5C0BFA02F22243FD
:1038F0001A54FD1CB8F1000F05EB01020FD4D3B22E
:103900003F2B0CD802F0F80309EB031302F0070475
:1039100013F80E600BFA04F4344303F80E40BCF1C4
:10392000000F3FF56DAFD3B23F2B3FF669AF02F00A
:10393000F80309EB031302F007021C5C0BFA02F216
:1039400022431A545CE700BF04300A9A00B2904246
:10395000BFF6F2AE4318DAB23F2A0DD95A1CD7B2DD
:103960003F2F1ED99A1CD7B23F2F2FD9DA1CD3B2C2
:103970003F2BE9D83FE000BF40F2700603F0F802A9
:10398000C2F2000606EB021203F0070712F8095014
:103990000BFA07F72F4302F809705A1CD7B23F2FD2
:1039A000E0D840F2700602F0F807C2F2000606EB1B
:1039B000071702F0070217F809500BFA02F22A4320
:1039C00007F809209A1CD7B23F2FCFD840F27006D3
:1039D00002F0F807C2F2000606EB071702F0070232
:1039E00017F809500BFA02F22A4307F80920DA1CEB
:1039F000D3B23F2BA8D840F2700702F0F803C2F20E
:103A0000000707EB031302F0070213F809700BFA23
:103A100002F23A4303F8092096E700BF0CB0BDE874
:103A2000F08F000070B540F20006C2F2000640F6CA
:103A300000447188C4F201040546C2092046FDF71E
:103A40005DFE318820460122FDF758FE3188204670
:103A50000022FDF753FE7188C5F380122046FDF762
:103A60004DFE318820460122FDF748FE3188204670
:103A70000022FDF743FE7188C5F340122046FDF792
:103A80003DFE318820460122FDF738FE3188204670
:103A90000022FDF733FE7188C5F300122046FDF7C2
:103AA0002DFE318820460122FDF728FE3188204670
:103AB0000022FDF723FE7188C5F3C0022046FDF702
:103AC0001DFE318820460122FDF718FE3188204670
:103AD0000022FDF713FE7188C5F380022046FDF732
:103AE0000DFE318820460122FDF708FE3188204670
:103AF0000022FDF703FE7188C5F340022046FDF762
:103B0000FDFD318820460122FDF7F8FD3188204671
:103B10000022FDF7F3FD718805F001022046FDF754
:103B2000EDFD318820460122FDF7E8FD3188204671
:103B30000022FDF7E3FD318820460122FDF7DEFD7E
:103B4000318820460022BDE87040FDF7D7BD000057
:103B500070B584B041F21800C4F20200016840F26E
:103B6000000641F0080101600068C2F2000600F0A2
:103B70000800009000981120318840F60044019020
:103B80000320C4F201046D460390009120462946AB
:103B9000FDF7A6FC7088294600902046FDF7A0FCA2
:103BA000318820460122FDF7A9FD718820460122B7
:103BB000FDF7A4FDAE2000F09FFBD52000F09CFB9C
:103BC000802000F099FBA82000F096FB3F2000F039
:103BD00093FBD32000F090FB002000F08DFB4020F1
:103BE00000F08AFBA12000F087FBC82000F084FBD6
:103BF000DA2000F081FB122000F07EFB812000F033
:103C00007BFBCF2000F078FBD92000F075FBF12082
:103C100000F072FBDB2000F06FFB302000F06CFB4B
:103C2000A42000F069FBA62000F066FB8D2000F0C8
:103C300063FB142000F060FBAF2000F05DFB40F25E
:103C40007000C2F200004FF48061FCF70FFC00F03E
:103C5000DDFA04B070BD000080B582B0062B11D033
:103C6000082B1FD146F2DC63C0F6000303EB0212FF
:103C7000A2F5007C08221023CDF800C000F0F0F877
:103C800002B080BD46F2A24302EB4202C0F600033E
:103C900003EB4202A2F1C00C06220823CDF800C0BB
:103CA00000F0DEF802B080BD2DE9F04F81B01D4676
:103CB00017468A46DDE90B688346104619460022FE
:103CC000002302F067FA88B1B8F1060F20D0B8F1EE
:103CD000080F2BD146F2DC60C0F6000000F1D006E0
:103CE00058465146082210231CE000BFB8F1060FC9
:103CF00020D0B8F1080F2BD146F2DC60C0F60000EE
:103D000000F1B00658465146082210231CE000BFBF
:103D100046F2A240C0F6000000F14E065846514659
:103D20000622082300960B9E00F09AF885F00045C5
:103D30000EE000BF46F2A240C0F6000000F14206CD
:103D4000584651460622082300960B9E00F088F83C
:103D5000DDF828903846294601F076FE044601F049
:103D6000B7FE02460B463846294602F0D7F805460C
:103D70000F463EB1701E032806F0030004D20A214C
:103D800098B91CE001261AE006F0FC01012642F277
:103D9000107200BF3346043902FB06F6FAD148F22E
:103DA000A061C0F20101594348B1012806D0642343
:103DB00001EB81025943022808BF51000E463046EC
:103DC00001F086FE02460B462846394601F00CFFFC
:103DD00001F05EFB01F038FE0546B0FBF6F05146FF
:103DE000021908EB0B00C0B24B46CDF8008000F082
:103DF00001F909F1010000FB08B0B8F1060F11D07C
:103E00000B9CB8F1080F1BD146F2DC61C0F6000133
:103E100001F1E007C0B2514608221023009700F0DC
:103E20001FF80DE046F2A241C0F6000101F154076F
:103E3000C0B2514606220823009700F011F80B9CEF
:103E400009F1020000FB08B05146C0B22A462346E1
:103E5000CDF8008000F0CEF801B0BDE8F08F000092
:103E60002DE9F04F83B047B2002F00F1BF803F290A
:103E700000F2BC805F18402FCDE9011388BFC1F16B
:103E80004003DFB2002F49D01118802911466FF08E
:103E90007F0388BF191AC9B200293FD0DDF804900A
:103EA00040F2700807EB090E01EB000BC2F20008AC
:103EB0004C4605E009F101095FFA89F4A6452DD9C0
:103EC00009F00703012101FA03F3DF434FEAD40AA3
:103ED0000646054608EBCA14A35D03EA07016B1CFE
:103EE000DBB29B45A155E5D9E15CAE1CF6B2394089
:103EF000B345E154DED9A15DEB1C5FFA83FC394088
:103F0000E345A155D6D914F80C100435EEB239406A
:103F1000B34504F80C10DDD8CCE700BFDDE9017132
:103F2000002A63D001398BB201EB5331C91003462B
:103F30000291802828BF8023A3F1800A40F27003F9
:103F4000C2F20003184407F0070100F1800300F5F6
:103F500060704FEAD70BC1F10809009000204FF0C4
:103F6000000E019307E000BF0EF1010E029B5FFA05
:103F70008EF083423AD35844072837D80C985FFA1A
:103F80008EF302FB030011D1009D1346564600BF7D
:103F9000002EE9D010F8017B2C788F40274305F8DC
:103FA000017B013B06F10106F2D1DDE7019F5B4495
:103FB00007EBC31615465346002BD5D090F800C02A
:103FC00016F8808C0CFA01F444EA080406F8804CD8
:103FD00010F8014B377824FA09F4274306F8017BDF
:103FE000013D03F10103E7D1BEE700BF03B0BDE827
:103FF000F08F00002DE9F04F83B0002B00F0BC8063
:1040000081460C981C4692468B4608285ED00628AE
:1040100040F0B280A01E01906042651E002642F270
:104020001078029029E000BF0120BAFBF0F04CF6B6
:10403000CD41CCF6CC41A0FB0112D20802EB8202AA
:10404000A0EB420006EB460140F0100046F2A2420F
:1040500009EB410100EB4000C0F6000202EB400713
:10406000C8B25946062208230097FFF7F9FE013629
:10407000A642A5F1010500F07F800298F14381423C
:10408000D2D00198801B032802D2012008E000BF93
:1040900025F00302012000BF043A00FB08F0FBD129
:1040A000214411F00301C0D0012903D100EB8000AD
:1040B0004000BAE74FF47A72424302294FF064019C
:1040C00008BF00FB01F21046AFE700BFA01E019041
:1040D0006042651E002642F21078029024E000BF84
:1040E0000120BAFBF0F04CF6CD41CCF6CC41A0FB60
:1040F0000112D20802EB8202A0EB420046F2DC621F
:10410000C0F6000209EBC60102EB001000F5807753
:10411000C8B25946082210230097FFF7A1FE0136C6
:10412000A642A5F1010527D00298F1438142D7D0DC
:104130000198801B032801D2012007E025F003022B
:10414000012000BF043A00FB08F0FBD1214411F02C
:104150000301C6D0012903D100EB80004000C0E775
:104160004FF47A72424302294FF0640108BF00FB0A
:1041700001F21046B5E700BF03B0BDE8F08F0000C4
:104180002DE9F04381B014461278DAB38946064629
:10419000082B1FD0062B35D146F2A2480027C0F6C7
:1041A000000800BF07EB470002EB420106EB4000AE
:1041B00008EB4101A1F1C005C0B24946062208231F
:1041C0000095FFF74DFE0137F8B2225C002AE9D1D5
:1041D00018E000BF46F2DC680027C0F6000800BF08
:1041E00006EBC70008EB0211A1F50075C0B2494605
:1041F000082210230095FFF733FE0137F8B2225C46
:10420000002AEDD101B0BDE8F083000010B5B02068
:1042100000F072F8102000F06FF8002000F06CF849
:1042200040F27004C2F200042046802100F09CF8A5
:10423000B12000F061F8102000F05EF8002000F0DE
:104240005BF804F18000802100F08EF8B22000F0CD
:1042500053F8102000F050F8002000F04DF804F55D
:104260008070802100F080F8B32000F045F8102025
:1042700000F042F8002000F03FF804F5C070802103
:1042800000F072F8B42000F037F8102000F034F895
:10429000002000F031F804F50070802100F064F88F
:1042A000B52000F029F8102000F026F8002000F0DA
:1042B00023F804F52070802100F056F8B62000F0B5
:1042C0001BF8102000F018F8002000F015F804F595
:1042D0004070802100F048F8B72000F00DF8102061
:1042E00000F00AF8002000F007F804F56070802163
:1042F000BDE8104000F038B870B540F20006C2F2D8
:10430000000640F600447188C4F2010405462046C8
:104310000122FDF7F3F9318820460122FDF7EEF97D
:10432000718820460022FDF7E9F9318820460022F5
:10433000FDF7E4F97820FFF775FB0020FFF772FB2B
:104340002846FFF76FFB718820460022FDF7D6F95B
:10435000318820460122FDF7D1F9718820460122DB
:10436000BDE87040FDF7CAB9F0B581B040F2000772
:10437000C2F2000740F600440D467988C4F20104F9
:10438000064620460122FDF7B9F939882046012268
:10439000FDF7B4F9798820460022FDF7AFF9398896
:1043A00020460022FDF7AAF97820FFF73BFB4020CA
:1043B000FFF738FB35B1013E16F8010FFFF732FB6E
:1043C000013DF9D1798820460022FDF797F9398817
:1043D00020460122FDF792F979882046012201B09A
:1043E000BDE8F040FDF78AB9704700007047000053
:1043F000FDF766BD70470000FEE700002DE9F041C3
:1044000084B01D461446ADF80E1064270DF10E025F
:10441000E021022306460097FDF736FC002840F015
:10442000058102AA3046E12106230097FDF72EFA06
:10443000002840F0FB809DF908003122C74382EA42
:1044400047069DF809E09DF80A30002848BF7E0025
:1044500077B27100002F48BF82EA46014FB24E008A
:10446000002F48BF82EA410671B27700002948BF99
:1044700082EA460779B27E00002948BF82EA4706F1
:1044800071B27700002948BF82EA460779B27E0000
:10449000002948BF82EA470671B27700002948BF69
:1044A00082EA460787EA0E014FB24E00002F48BF4E
:1044B00082EA410671B27700002948BF82EA4607C6
:1044C00079B27E00002948BF82EA470671B27700C0
:1044D000002948BF82EA460779B27E00002948BF1A
:1044E00082EA470671B27700002948BF82EA460790
:1044F00079B27E00002948BF82EA470671B2770090
:10450000002948BF82EA4607F9B2994240F08E80FE
:104510009DF80BC09DF80C804FFA8CF1CF4382EAD6
:1045200047069DF80D30002948BF7E0071B2770024
:10453000002948BF82EA460779B27E00002948BFB9
:1045400082EA470671B27700002948BF82EA46072F
:1045500079B27E00002948BF82EA470671B277002F
:10456000002948BF82EA460779B27E00002948BF89
:1045700082EA470671B27700002948BF82EA4607FF
:1045800087EA08014EB24F00002E48BF82EA410779
:1045900079B27E00002948BF82EA470671B27700EF
:1045A000002948BF82EA460779B27E00002948BF49
:1045B00082EA470671B27700002948BF82EA4607BF
:1045C00079B27E00002948BF82EA470671B27700BF
:1045D000002948BF82EA460779B27E00002948BF19
:1045E00082EA4706F1B2994220D148F20102C8F2AC
:1045F000000245B1C0B24EEA002064214843A0FB4E
:104600000201C80B28606CB148EA0C2044F25C41FE
:104610004843A0FB02014EF66C60CFF6FF7000EB42
:10462000D1302060012004B0BDE8F081002004B04A
:10463000BDE8F081AAB0FDF751FC00240120CDE9CE
:104640001644CDE91444119015904FF4E0104FF446
:10465000803102251A9011A80B94CDE90944CDE9C7
:104660001214CDE91851FDF7D5FE28B1EFF31080F3
:1046700072B600BFFEE700BF0F20CDE90C054FF476
:104680008060CDE90F040CA802210E94FDF7BAFD5D
:1046900020B1EFF3108072B6FEE700BF0220089051
:1046A0004FF400400A9008A8FDF726FD20B1EFF373
:1046B000108072B6FEE700BFFEF718FDFEF764FD3E
:1046C000FEF7E8FCFEF782FDFFF742FA00F0E6F99C
:1046D00040F2A0444FF0000AC2F2000400251BE0A3
:1046E00040F2A04401250022C2F2000441F2000081
:1046F000C4F201004FF40051FDF700F8FFF786FD0A
:104700000AF1010A5FFA8AF014284FF47A7088BF20
:104710004FF0000AFCF7D0FEFEF77AFD204600F0CD
:104720009FFAA8B1204611A90CAA00F093FA78B11B
:10473000119801F0B6F900230022C4F2590300F0E9
:10474000EDFF00F005FF0C998346059104E000BFE2
:1047500000204FF0000B059040F27044C2F20004BC
:1047600020460695FCF702FE20466421FCF7CAFCB1
:104770002046FCF7E3FB40F6FF71A1EB0009204661
:10478000FCF75AFE08A80DF11E0100F0B7F95FFA18
:104790008AF0092800F2A08014200021BCA208237E
:1047A000FFF7EEFC00215846CCF2101101F01CFD81
:1047B000002100284FF002055846C4F2101118BF1E
:1047C000032501F0FCFC002100285846C4F2C62154
:1047D00018BF022501F0F3FC46F6295200284FF0DD
:1047E00001004FF01001C0F600024FF0080318BF9F
:1047F0000325FFF7C5FC46F63B5201202021C0F6F9
:1048000000020823FFF7BCFC4E20A0EBC50458466D
:1048100001F072FC80460E460220019020461021D5
:1048200042463346082700950297FFF73DFA58465F
:10483000002101F0D2FC28B92046102120220823B3
:10484000FFF70AFA7420142102220023FEF7EAFC83
:10485000059F662020213A46022308250095FFF790
:10486000C9FB7820102143220823FFF7F5F97820AF
:10487000202125220823FFF7EFF9B9F1090F4FF0A6
:10488000010488BF0224B9F1630F4FEAD90046F64C
:10489000425288BF03247C284FF001004FF03001C2
:1048A000C0F600024FF0080388BF0424FFF768FC3D
:1048B0006E20A0EBC40030214A4623460095FFF746
:1048C00099FB46F6585270203021C0F600020823AA
:1048D000FFF756FC91E000BF0820002168A20823E2
:1048E000FFF74EFCB9F1090F4FF0010488BF022415
:1048F000B9F1630F4FEAD90046F6425288BF03244C
:104900007C284FF001004FF01001C0F600024FF07C
:10491000080388BF0424FFF733FC6E20A0EBC4001B
:1049200010214A46234608270097FFF763FB46F607
:10493000585270201021C0F600020823FFF720FC17
:10494000BDF820400125092CBDF81E6088BF022556
:10495000632C4FEAD40088BF03257C2888BF042538
:10496000092E4FF0010788BF0227632E4FEAD600B9
:1049700046F6305288BF03277C284FF001004FF0E5
:104980002001C0F600024FF0080388BF0427FFF79C
:10499000F7FB46F6355201203021C0F6000208230D
:1049A000FFF7EEFB4FF06608A8EBC500202122467A
:1049B0002B4608240094FFF71DFBA8EBC70030210D
:1049C00032463B460094FFF715FB46F654526820EA
:1049D0002021C0F600020823FFF7D2FB46F6505212
:1049E00068203021C0F600020823FFF7C9FB5846B3
:1049F00001F082FB059F80460E46069D46F64D520D
:104A000046F64953BDF82000C0F60002C0F6000388
:104A1000BDF81E10002D08BF1A4602AB07C311AC2B
:104A200046F6DC412046C0F6000142463346009778
:104A3000CDF80490FBF7DAFB82B240F2F440C2F208
:104A4000000021464FF47A73FDF784FF4FEAD90046
:104A5000E02802D8002D3FF443AEB9F5E16F09D349
:104A600040F2A044002DC2F200043FF447AE0025FE
:104A700001223BE640F2A044C2F200043EE600BF41
:104A800053756E6E79436C6F756459616E67000083
:104A9000496E74656C6C69446F726D0010B582B0BC
:104AA000FEF772FB06208DF8070040F2A040642458
:104AB000C2F200000DF10702002101230094FDF76E
:104AC000E3F818B16FF0010002B010BD3220FCF71E
:104AD000F3FC4FF44870ADF8050040F2A040C2F27C
:104AE00000000DF10502B02102230094FDF7CCF87F
:104AF000002818BF6FF0020002B010BD70B584B07E
:104B00000546002003904FF40260029040F2A0405E
:104B10000C466426C2F2000002AAB02102230096CD
:104B2000FDF7B2F820B14FF0FF3004B070BD00BF08
:104B30000A20FCF7C1FC40F2A040C2F2000002AA29
:104B4000B12106230096FCF7A1FE18B16FF0010019
:104B500004B070BD9DF90BC031216FEA0C0281EAEF
:104B60004203BCF1000F48BF53005AB25E00002A56
:104B700048BF81EA430672B27300002A48BF81EA47
:104B800046035AB25E00002A48BF81EA430672B269
:104B90007300002A48BF81EA46035AB25E00002A29
:104BA00048BF81EA430672B27300002A48BF81EA17
:104BB00046035AB25E00002A48BF81EA43069DF8C8
:104BC0000CE09DF80D3086EA0E0670B272000028E7
:104BD00048BF81EA460250B25600002848BF81EA29
:104BE000420670B27200002848BF81EA460250B205
:104BF0005600002848BF81EA420670B272000028C1
:104C000048BF81EA460250B25600002848BF81EAF8
:104C1000420670B27200002848BF81EA460250B2D4
:104C20005600002848BF81EA4206F0B298420DD1F2
:104C300025B1BDF8080000BA000C2880002C1CBF6C
:104C40004EEA0C202080002004B070BD6FF00200FE
:104C500004B070BD13460A4642F25C41FFF7CEBB7A
:104C6000B0B582B004464CF6EF00ADF80400642500
:104C700001AA2046E02102230095FDF705F818B1AE
:104C8000002002B0B0BD00BF0DF106022046E121B8
:104C900002230095FCF7FAFD00284FF0000001D038
:104CA00002B0B0BDBDF8061040F63F0209BA02EAF4
:104CB000114240F607054FF2C073AA4208BF03EA4B
:104CC000114002B0B0BD5FEA400C08BF91F0000F88
:104CD0004FEA8C234FEAC12243EA51514FEA1C505C
:104CE00018BF00F5F0404FEA300018BF41F0004116
:104CF0005FEA6C5C00F02980BCF1FF3F08BF40F028
:104D000080407047130C06BF12044FF0100C4FF098
:104D1000000C130E04BF12020CF1080C130F04BF99
:104D200012010CF1040C930F04BF92000CF1020C61
:104D3000D30F04BF52000CF1010C11464FF00002DA
:104D4000A0F11F00A0EB0C00704711F0004F08BF4E
:104D5000704731F000413FF4D5AF0B0C06BF09049A
:104D60004FF0100C4FF0000C0B0E04BF09020CF1B9
:104D7000080C0B0F04BF09010CF1040C8B0F04BFCE
:104D800089000CF1020CCB0F04BF49000CF1010C9F
:104D9000CCF1200322FA03F341EA030102FA0CF2F8
:104DA000A0EB0C0000F101007047000023F07F47EA
:104DB00020F07F4C80EA030000F00040ACEB0703DA
:104DC00003F57C5303F1FF032DE9804909B44FEA51
:104DD000144324EA03484FEA154B25EA0B4E0FF221
:104DE000042606EB13273E7803FB0667C7F500078A
:104DF00007FB06F64FEAD64606F102064FEA54379D
:104E000007FB066CCCF1005C4FEA1C472CEA074C10
:104E10000CFB06F507FB06F404EB15464FEA961665
:104E200049085FEA320234BF00204FF000404FEAE9
:104E3000D13706FB07FC4FEA1C4C0CFB0BF7D21BCF
:104E400003FB0CF761EB07010CFB0EF7B0EB07401F
:104E500072EB17420CFB08F734BFA2EB0742B2EB30
:104E6000074261EB17414FEA0C444FEA910706FBFA
:104E700007FC4FEA1C4C0CFB0BF7B0EBC74072EB86
:104E8000573203FB0CF734BFA2EBC742B2EBC74269
:104E900061EB57310CFB0EF7B0EBC70072EB5772AA
:104EA0000CFB08F734BFA2EBC702B2EBC70261EB01
:104EB00057714FEA816141EA92114FEA826242EAF8
:104EC00090124FEA806004EBCC04039F4FEAD13785
:104ED00006FB07FC4FEA1C4C0CFB0BF7D21B03FB39
:104EE0000CF761EB07010CFB0EF7B0EB074072EB20
:104EF00017420CFB08F734BFA2EB0742B2EB0742A4
:104F000061EB17414FEA8C5504EB9C244FEA910763
:104F100006FB07FC4FEA1C4C0CFB0BF7B0EBC74041
:104F200072EB573203FB0CF734BFA2EBC742B2EB74
:104F3000C74261EB57310CFB0EF7B0EBC70072EBC9
:104F400057720CFB08F734BFA2EBC702B2EBC702E3
:104F500061EB57714FEA816141EA92114FEA826237
:104F600042EA90124FEA806015EB4C2544F10004B0
:104F70004FEAD13706FB07FC4FEA1C4C0CFB0BF742
:104F8000D21B03FB0CF761EB07010CFB0EF7B0EB38
:104F9000074072EB17420CFB08F734BFA2EB074245
:104FA000B2EB074261EB17414FEA813141EA92418E
:104FB0004FEA823242EA90424FEA80304FEA0C7662
:104FC00015EB1C1544F1000448EA03434EEA0B4874
:104FD0004FF0000EB2EB080C71EB030724BF6246E2
:104FE00039464EEB0E0E4FF0000B0018524149416E
:104FF0004BEB0B0BB2EB080C71EB03077BF1000BD7
:1050000024BF624639464EEB0E0E4FF0000B0018DF
:10501000524149414BEB0B0BB2EB080C71EB030710
:105020007BF1000B24BF624639464EEB0E0E51EA6F
:10503000020718BF46F0010616EB0E7655F1000286
:1050400054F1000103D5BDE88901BDE80088BDE841
:105050008901BDE80048B619524141EB0101A3F1B5
:105060000103704780807F7E7D7C7B7A79787776BC
:1050700076757473727171706F6E6E6D6C6C6B6A35
:105080006A696868676666656464636362616160D3
:10509000605F5F5E5E5D5D5C5C5B5B5A5A59595850
:1050A00058575756565555555454535352525251BA
:1050B000515050504F4F4F4E4E4D4D4D4C4C4C4B10
:1050C0004B4B4A4A4A494949484848474747474657
:1050D0004646454545444444444343434342424293
:1050E000424141419C46002B30D477002BD04FEAFF
:1050F00037071CB503B44FF010004FF01001BAF1A0
:10510000000F06D0BCF1000FDCBF40F0080040F0FB
:1051100008014FF000000FBCBDE810400BF1010B7F
:10512000BBF1010F08BF5FEA170722BF12F10102AE
:1051300011F101014FF0004143F1000300F0004084
:1051400043EA00007047F9D35708D0E746EA06461D
:105150004FEA164613F1400F1FDD13F1200FDFBF9A
:1051600016430A46002120335B42BED0C3F120071C
:1051700046EA06464FEA164602FA07F746EA0706E7
:1051800022FA03F2C3F1200701FA07F742EA070205
:1051900021FA03F14FF00003A7E746EA020646EAC8
:1051A00006464FEA164646EA0106BCBF46EA0646F0
:1051B000360C4FF000034FF000024FF0000194E76F
:1051C0002DE9804C70B49A46934691E8380007C8A0
:1051D00031EA400C48BF34EA430C03D5FFF7E6FD43
:1051E000FFF780FFF0BCBDE8008C2DE9804C70B467
:1051F0009A46934691E8380007C810F0804F08BFE0
:1052000013F0804F03D100F005F8FFF76BFFF0BCFF
:10521000BDE8008C20F07F4723F07F4C80EA03003C
:1052200000F0004007EB0C03A3F57C53A3F1FE0351
:1052300092F0000F00F0B38095F0000F00F077803F
:105240002DE901494FEA114021EA00484FEA14468E
:1052500024EA064700FB06FC08FB06F607FB08F8F5
:1052600018EB06484CEB164C00FB07F718EB074809
:105270004CEB17404FEA124B22EA0B4E4FEA154611
:1052800025EA06470BFB06FC0EFB06F607FB0EFEA7
:105290001EEB064E4CEB164C0BFB07F71EEB074EB6
:1052A0004CEB174B18EB0B0840F1000018EB0E0B02
:1052B00058EB000840F100008F1A4FF000014FF04A
:1052C00000063CBFC943661B14BFB5EB040C0021AC
:1052D0003CBFC943F61B4FEA174427EA04454FEA8F
:1052E0001C472CEA074C04FB076205FB07F70CFB85
:1052F00005F616EB074642EB174204FB0CFC16EBD7
:105300000C4642EB1C421BEB060658EB02024141E5
:105310004EEA8E0E46EA9E0601D5BDE80189B61911
:10532000524141EB0101A3F10103BDE801894FEABC
:10533000144524EA05464FEA114721EA074C05FBCC
:1053400007F406FB07F70CFB06F111EB074144EBF2
:10535000174405FB0CFC11EB0C4144EB1C444FEAD9
:10536000124722EA074C05FB07F206FB07F70CFB86
:1053700006F616EB074642EB174205FB0CFC16EB54
:105380000C4642EB1C456A1854F1000148BF7047B7
:10539000B619524141EB0101A3F10103704795F0A9
:1053A000000F37D04FEA114221EA02464FEA144774
:1053B00024EA074C02FB07F106FB07F70CFB06F497
:1053C00014EB074441EB174102FB0CFC14EB0C44BB
:1053D00041EB1C414FEA154725EA074C02FB07F554
:1053E00006FB07F70CFB06F616EB074645EB1745E1
:1053F00002FB0CFC16EB0C4645EB1C42121951F15A
:10540000000148BF7047B619524141EB0101A3F1B9
:10541000010370474FEA144524EA05464FEA114755
:1054200021EA074C05FB07F106FB07F70CFB06F228
:1054300012EB074241EB174105FB0CFC12EB0C424F
:1054400051EB1C414FF0000648BF7047921841EBEA
:105450000101A3F101037047490050EAC12018BFC0
:1054600004204A0D18BF40F0010040F2FF72B2EB79
:10547000515F08BF40F00200012808BF05207047B7
:1054800030380A2801D20120704700207047000000
:105490002DE9F04D07460E4600F0DAFC04460D46B5
:1054A0003A46334600F02EFDDFF86CA0DFF86CB012
:1054B0001B4B0746884616F0004F4FF000020AD0FB
:1054C00000F056FB0AD900225B463846414600F000
:1054D00089FC1BD212E000F04BFB08D2002253469D
:1054E0002046294600F01AFD04460D460EE0002233
:1054F0005B463846414600F075FC07D8002253460B
:105500002046294600F056F804460D46314620460E
:1055100065F31E01BDE8F08D0000F03F0000E03FA4
:105520000000E0BF10B500290AD00878002807D095
:1055300005487844FAF7C2FF002801D0002010BDCA
:105540000248784410BD00004A18000042180000CC
:1055500021F0004201F00043A2F16052B2F5801F39
:1055600028BFD2F17F6C0BD95FEA001C43EAC2026C
:1055700042EB507018BF704728BF20F00100704701
:10558000B2F5801FBCBF184670474FEA410C1CF5AE
:10559000001F02D2084600F01DBF70B500F0CEFB20
:1055A00000000089FFF7F6BF4FF00040A0F5800033
:1055B0007047000010B591EA030F48BF83F0004325
:1055C00000F1B484841A71EB030C05D2121943EB79
:1055D0000C03001B61EB0C014FEA1154A4EB135CAC
:1055E000DFF81CE11EEA430F18BF9EEA445F00F09B
:1055F000748021EA045123EA0E0343F48013DCF1A2
:10560000200E32D322FA0CFE10EB0E0023FA0CFE11
:1056100041EB0E01CCF1200E03FA0EFE10EB0E0052
:10562000CCF1200E51F10001B1F5801F32D201EB17
:10563000045112FA0EF2BDE8104058BF7047401CEA
:1056400038BF5FEA420218BF7047002814BF20F03D
:10565000010041F100014FEA410313F5001F38BF7B
:105660007047A1F1C04100F0B7BB012A43EB030230
:10567000ACF1200CDCF11F0E32BF4FF0000E23FA0C
:105680000CF310EB030041EB0451B4EB115FD0D0ED
:10569000A1EB045101F58011490801EB04515FEAC7
:1056A00030000ED350F1000038BF12FA0EFE08D1C0
:1056B000BDE81040C9E7401C38BF5FEA4202CAD1CA
:1056C000C3E7BDE810404FEA410313F5001F38BFA0
:1056D0007047A1F1C04100F07FBB9EEA445F08D053
:1056E00011EA5E0FBDE8104004BF01F00041002048
:1056F0007047BDE8104070B500F020FB64FBBE3E73
:105700000000E0FF491058BFC1F140415B1058BF95
:10571000C3F140438B42EFF3008070472DE9C04155
:1057200030B4DFF8A4C23CEA111418BF3CEA1314E9
:1057300000F0ED801CEA111481EA030544EAD574F7
:1057400018BF1CEA131500F0C880A4EB050404F18F
:105750007F7404F500344FF0004545EAC12145EA65
:10576000C32341EA505143EA52534FEAC0204FEA63
:10577000C222994208BF904200F09D804FEA136513
:105780000FF24416765D4FEA134506FB05F7C7F1A5
:10579000807706FB07F74FEAD737A7FB0368764207
:1057A000A7FB06CEC8F5803838BFA8F1010807FB73
:1057B00008E6A6FB028C4FF0000EE6FB03CEDCF100
:1057C000000CCEF1004E38BFAEF1010EA6FB0C5816
:1057D0004FF00007E6FB0E87A1FB08C6A0FB07CE33
:1057E00016EB0E064FF0000545F10005E1FB0765DD
:1057F00015F1E04E7EBFA4F580345FEA46066D41A8
:1058000016F1800745F100054FEA172747EA0567BB
:105810004FEA15254FEA0666A6F1DE46B6F1805F2F
:1058200020D9384605EBC47124F0010C01EB0C11B2
:10583000BCF1FE6F02D8F0BCBDE8008124425CBF21
:1058400001F5801E9EEAC47F02D4F0BCBDE8008151
:10585000244200F13980A1F1C041F0BCBDE8004113
:1058600000F0BABA4FEAD02040EA41504FEAD121C5
:105870004FEAD22242EA43524FEAD323A7FB0286E1
:1058800007FB036605FB02661EEA0E0F58BFA6EB78
:105890000056B6EB00564FEA520E4EEAC37E18EBA6
:1058A0000E0E56EB530EBCD518EB02085E417F1C62
:1058B00055F10005B5E74FF480154FF000074FF0A4
:1058C00000064FF00008ACE701F1C04101F00041D3
:1058D0004FF00000F0BCBDE800810CEA131511EA9E
:1058E0000C1F00D00CE013EA0C1F00F026804FF0D4
:1058F000000081EA030101F00041F0BCBDE8008135
:10590000F0BCBDE8004181EA030100F065BAF0BCDB
:10591000BDE8004170B500F011FA00BF097EFC3E01
:1059200000F007B84FF0000081EA030101F00041E8
:10593000704781EA030100F04FBAF0BCBDE80041B6
:1059400022494FF000007047FFFDFBF9F7F5F4F234
:10595000F0EEEDEBE9E8E6E4E3E1E0DEDDDBDAD80A
:10596000D7D5D4D3D1D0CFCDCCCBCAC8C7C6C5C468
:10597000C2C1C0BFBEBDBCBBBAB9B8B7B6B5B4B37F
:10598000B2B1B0AFAEADACABAAA9A8A8A7A6A5A46A
:10599000A3A3A2A1A09F9F9E9D9C9C9B9A9999982E
:1059A0009797969595949393929191908F8F8E8ED1
:1059B0008D8C8C8B8B8A898988888787868585845E
:1059C00084838382828181800000FF070000F87F4A
:1059D00051EA030C17D41CF5801F58BFBCF5801F7B
:1059E00000F10680994218BF704708BF9042704787
:1059F00007D711F5801F58BF13F5801F19D499429E
:105A00007047894270471CF5801F08D5BCF5801F80
:105A1000F7D58B4218BF704708BF824270474FF4DA
:105A2000001C1CEB410F38BF1CEB430F01D28B4213
:105A3000704770B500F082F9922449004FF0005190
:105A40004FF08053FFF75EBE4FEA1153A3F580631A
:105A5000D3F11E03A8BFD3F1200C08DB4FF00042A6
:105A600042EAC12252EA505232FA03F07047094228
:105A70000BD4102BC4BF0020704703F5787CBCF119
:105A8000FF3F05D04FF0FF3070474FF000007047E8
:105A900070B500F053F900BF499224800020704790
:105AA000F0E710F0004248BF4042B0FA80F310FA2D
:105AB00003F10AD0C3F11D0303F5806302EB035227
:105AC0004FEA415002EBD12170474FF00000704780
:105AD000B0FA80F310FA03F10AD0C3F11D0303F505
