:020000040800F2
:10000000F80A0020890100085D3200082129000853
:1000100059320008D1030008E93F00080000000041
:10002000000000000000000000000000F53E000895
:10003000D503000800000000B53E00084D3F000851
:10004000A3010008A3010008A3010008A301000800
:10005000A3010008A3010008A3010008A3010008F0
:10006000A3010008A3010008A3010008A3010008E0
:10007000A3010008A3010008A3010008A3010008D0
:10008000A3010008A3010008A3010008A3010008C0
:10009000A3010008A3010008A3010008A3010008B0
:1000A000A3010008A3010008A3010008A3010008A0
:1000B000A3010008A3010008A3010008A301000890
:1000C000A3010008A3010008A3010008A301000880
:1000D000A3010008A3010008A3010008A301000870
:1000E000A3010008A3010008A301000800F002F822
:1000F00000F03AF80AA090E8000C82448344AAF188
:100100000107DA4501D100F02FF8AFF2090EBAE885
:100110000F0013F0010F18BFFB1A43F0010318473B
:100120008C5D0000AC5D0000103A24BF78C878C137
:10013000FAD8520724BF30C830C144BF04680C60ED
:10014000704700000023002400250026103A28BF35
:1001500078C1FBD8520728BF30C148BF0B60704739
:100160001FB51FBD10B510BD00F05CF81146FFF7BC
:10017000F7FF04F069F800F07AF803B4FFF7F2FF34
:1001800003BC00F07DF8000009488047094800479B
:10019000FEE7FEE7FEE7FEE7FEE7FEE7FEE7FEE737
:1001A000FEE7FEE704480549054A064B7047000094
:1001B000E53F0008ED000008F8040020F80A0020E0
:1001C000F8060020F80600204FF0000200B51346A4
:1001D00094469646203922BFA0E80C50A0E80C5067
:1001E000B1F12001BFF4F7AF090728BFA0E80C5018
:1001F00048BF0CC05DF804EB890028BF40F8042B11
:1002000008BF704748BF20F8022B11F0804F18BF7D
:1002100000F8012B704770477047704700487047DF
:10022000100000207546FFF7F9FFAE46050069464D
:10023000534620F00700854618B020B5FFF7B2FFFF
:10024000BDE820404FF000064FF000074FF00008D7
:100250004FF0000BAC46ACE8C009ACE8C009ACE814
:10026000C009ACE8C00921F007018D46704710B500
:100270000446AFF300802046BDE81040FFF77DBF85
:1002800001491820ABBEFEE72600020070470000BF
:1002900080B584B0029000200190029800688068C8
:1002A000C00770B3FFE702980168886820F001007A
:1002B000886000F0E3FE0190FFE702980068806824
:1002C000C007E8B1FFE700F0D9FE0199401A032802
:1002D00015D3FFE7029800688068C00770B1FFE798
:1002E0000299886A40F0100088620299C86A40F05A
:1002F0000100C86201208DF80F0006E0FFE7DCE78F
:10030000FFE700208DF80F00FFE79DF80F0004B015
:1003100080BD000080B584B0029000200190009064
:10032000029800688068C007002849D1FFE702985A
:100330000168886840F00100886040F20400C2F261
:10034000000000684DF68361C4F21B31A0FB011070
:10035000800C0090FFE7009820B1FFE7009801387B
:100360000090F8E700F08AFE0190FFE7029800682D
:100370008068C00718BBFFE700F080FE0199401AB3
:1003800003281BD3FFE7029800688068C007A0B964
:10039000FFE70299886A40F0100088620299C86AF3
:1003A00040F00100C862FFE70299002081F82400B4
:1003B000FFE701208DF80F0006E0FFE7D6E7FFE733
:1003C00000208DF80F00FFE79DF80F0004B080BDFE
:1003D000FFE7FEE77047000081B0EFF3108072B6D0
:1003E0000090FFE7FEE7000085B003900291002037
:1003F0008DF807000090FFE7039890F8240001288B
:1004000004D1FFE702208DF81300C3E00399012017
:1004100081F82400FFE7FFE702984068062812D819
:10042000FFE703980068406B029A1168526802EB7C
:100430008202053A1F239340984391400843039951
:100440000968486329E0029840680C2812D8FFE741
:1004500003980068006B029A1168526802EB8202EE
:10046000233A1F2393409843914008430399096816
:10047000086311E003980068C06A029A1168526824
:1004800002EB8202413A1F23934098439140084374
:1004900003990968C862FFE7FFE7029800680A2825
:1004A00012D3FFE703980068C06802990A68896858
:1004B00002EB42021E3A07239340984391400843BF
:1004C00003990968C86010E0039800680069029900
:1004D0000A68896802EB42020723934098439140DF
:1004E0000843039909680861FFE70298006810282B
:1004F00005D0FFE702980068112840D1FFE7039874
:10050000006842F20041C4F2010188422DD1FFE7A8
:100510000398006880680002002825D4FFE703984C
:100520000168886840F4000088600298006810281C
:1005300019D1FFE740F20400C2F2000000684DF656
:100540008361C4F21B31A0FB0110800C00EB800022
:1005500040000090FFE7009820B1FFE700980138C5
:100560000090F8E7FFE7FFE708E00399886A40F0AA
:100570002000886201208DF80700FFE7FFE7FFE712
:100580000399002081F82400FFE79DF807008DF80B
:100590001300FFE79DF8130005B0704781B000908D
:1005A00000980068C06C01B07047000080B588B04A
:1005B000069000208DF81700049003900290069892
:1005C00020B9FFE701208DF81F00F4E0069880684D
:1005D00030B1FFE70698007D08B1FFE7FFE7FFE7CE
:1005E0000698806A50B9FFE706990020C86206990C
:1005F00081F82400069800F0E3F8FFE70698FFF77B
:1006000047FE8DF817000698806AC006002800F1A2
:10061000C480FFE79DF81700002840F0BE80FFE788
:100620000698806A40F0020020F48850069988629B
:1006300006994868CA691043097B40EA410103985A
:1006400008430390069881680120B1F5807F0190EE
:1006500008D0FFE7069880680138B0FA80F04009BA
:100660000190FFE701990498CA0740F48071002ABD
:1006700018BF084604900698007D01281ED1FFE7A8
:100680000698007B70B9FFE7069881694EF200007A
:10069000CFF6FF7000EB41300499084340F400604E
:1006A00004900AE00699886A40F020008862069962
:1006B000C86A40F00100C862FFE7FFE706980068DB
:1006C000406820F469400499084306990968486025
:1006D0000698006880684FF2FD71CFF6E17108401E
:1006E0000399084306990968886006988168012083
:1006F000B1F5807F009008D0FFE706988068013848
:10070000B0FA80F040090090FFE7009800F0010087
:10071000002818BF4FF48070B0F5807F09D1FFE743
:10072000069801690020CFF6F07000EB01500290AE
:10073000FFE706980068C06A20F470000299084339
:1007400006990968C86206980068806840F6FE61EC
:10075000CFF61F710840039988420CD1FFE7069934
:100760000020C8620698806A40F0010020F0020074
:100770000699886210E00698806A40F0100020F028
:100780000200069988620699C86A40F00100C862B2
:1007900001208DF81700FFE708E00699886A40F00D
:1007A0001000886201208DF81700FFE79DF8170000
:1007B0008DF81F00FFE79DF81F0008B080BD000006
:1007C00080B588B0079000200690059004900390B3
:1007D0000798006842F20041C4F2010188422AD120
:1007E000FFE7FFE741F21800C4F20200016841F49C
:1007F00000710160006800F4007002900298FFE749
:10080000FFE741F21800C4F20200016841F0040160
:100810000160006800F0040001900198FFE70220E9
:1008200003900320049040F60000C4F2010003A9E5
:1008300000F07CFAFFE708B080BD000080B58CB006
:100840000A900991002008900790069000F016FC8D
:1008500008900A9800688068C00500280FD5FFE757
:100860000A99886A40F020008862FFE70A99002010
:1008700081F82400FFE701208DF82F001CE10A9881
:1008800000684068C005002838D4FFE70A9800686F
:10089000C06A10F4700F31D1FFE7FFE70A980068D3
:1008A00000688007002828D4FFE70998013018B3B2
:1008B000FFE7099840B1FFE700F0E0FB0899401A14
:1008C0000999884217D9FFE70A98006800688007ED
:1008D00000280FD4FFE70A99886A40F00400886274
:1008E000FFE70A99002081F82400FFE703208DF834
:1008F0002F00E1E0FFE7FFE7D0E7B0E040F20400BF
:10090000C2F2000000680490022001F05FF9014685
:100910000498B0FBF1F005900A980068006944F66D
:100920002411C2F2924108422BD1FFE70A980068D5
:10093000C06844F62411C0F29201084221D1FFE7B9
:100940000A9800680169002042F29242C1F24922ED
:10095000114203900DD1FFE70A980068C06842F287
:100960009241C0F249010840B0FA80F0400903907A
:10097000FFE70398C1072920002918BF142002901F
:1009800039E00A980068006942F29241C1F24921B7
:1009900008420CD1FFE70A980068C168012042F2C2
:1009A0009242C0F24902114201901CD0FFE70A981E
:1009B00000680169002049F24922C0F22402114274
:1009C00000900DD1FFE70A980068C06849F24921FC
:1009D000C0F224010840B0FA80F040090090FFE71F
:1009E00000980190FFE70198C107FC20002918BF7B
:1009F00054200290FFE70598029948430690FFE7CC
:100A000007980699884229D2FFE70998013008B370
:100A1000FFE7099840B1FFE700F030FB0899401A62
:100A20000999884215D9FFE70798069988420FD29D
:100A3000FFE70A99886A40F004008862FFE70A9994
:100A4000002081F82400FFE703208DF82F0033E019
:100A5000FFE7FFE7079801300790D1E7FFE70A9823
:100A600001686FF0120008600A99886A40F400700B
:100A700088620A980068806800F46020B0F5602FF2
:100A800016D1FFE70A98007B90B9FFE70A99886AB8
:100A900020F4807088620A98806AC004002806D416
:100AA000FFE70A99886A40F001008862FFE7FFE7E4
:100AB00000208DF82F00FFE79DF82F000CB080BDBF
:100AC00080B584B0029000208DF80700FFE70298FF
:100AD00090F82400012804D1FFE702208DF80F00D0
:100AE000C5E00299012081F82400FFE7FFE70298A2
:100AF000FFF710FC8DF807009DF80700002840F074
:100B0000AA80FFE70298806A40F4807040F20121D9
:100B10008843029988620298006842F60001C4F294
:100B20000101884209D1FFE742F20440C4F201000A
:100B3000006810F4702F03D018E00020B0B9FFE770
:100B40000299886A20F480108862029800684068E0
:100B50004005002809D5FFE70298806A40F48050DC
:100B600020F4005002998862FFE72CE00299886A1D
:100B700040F4801088620298006842F20041C4F29A
:100B80000101884209D0FFE70298006842F600019F
:100B9000C4F20101884209D1FFE742F20440C4F2E5
:100BA000010000684005002803D40BE0012048B98B
:100BB000FFE70298806A40F4805020F400500299C8
:100BC0008862FFE7FFE70298806AC004002806D524
:100BD000FFE70299C86A20F00600C86203E00299A4
:100BE0000020C862FFE7FFE70299002081F8240097
:100BF000FFE7029801686FF0020008600298006841
:100C0000806800F46020B0F5602F1CD1FFE70298E7
:100C1000006842F60001C4F20101884209D1FFE7F1
:100C200042F20440C4F20100006810F4702F03D0B7
:100C300009E0002038B9FFE702980168886840F4AD
:100C4000A000886006E002980168886840F480107F
:100C50008860FFE706E0FFE70299002081F82400A2
:100C6000FFE7FFE79DF807008DF80F00FFE79DF80D
:100C70000F0004B080BD000080B584B00290002059
:100C80008DF80700FFE7029890F82400012804D1AE
:100C9000FFE702208DF80F0022E00299012081F881
:100CA0002400FFE7FFE70298FFF7F2FA8DF807004C
:100CB0009DF8070048B9FFE70298806A40F00100FC
:100CC00020F4885002998862FFE7FFE7029900202C
:100CD00081F82400FFE79DF807008DF80F00FFE77B
:100CE0009DF80F0004B080BD80B584B0039000F083
:100CF000C5F90290039801900198013048B1FFE7CF
:100D000040F20800C2F20000017801980844019006
:100D1000FFE7FFE700F0B2F90299401A0199884213
:100D200001D2FFE7F6E704B080BD000090B00F905D
:100D30000E9100200D900990FFE70E9800680D9924
:100D4000C840002800F07F81FFE70D99012088400E
:100D50000C900E9800680C9908400B900B980C9919
:100D6000884240F06C81FFE70E98406805900028AB
:100D700051D0FFE7059801283AD0FFE705980228EF
:100D80003FD0FFE7059803285FD0FFE705981128BB
:100D900032D0FFE70598122838D0FFE705980021E8
:100DA000C1F21101884236D0FFE705980021C1F257
:100DB000120188422FD0FFE705980021C1F22101DE
:100DC000884228D0FFE705980021C1F2220188421D
:100DD00021D0FFE705980021C1F2310188421AD0E5
:100DE000FFE705980021C1F23201884213D02FE0BD
:100DF0000E98C06809902CE00E98C06804300990E5
:100E000027E00E98C0680830099022E00E98C0686C
:100E10000C3009901DE00E98806818B9FFE7042097
:100E2000099011E00E988068012806D1FFE708209C
:100E300009900C980F99086105E0082009900C981A
:100E40000F994861FFE7FFE703E00020099000E009
:100E5000FFE70B98FF2803D8FFE70F98049003E003
:100E60000F9804300490FFE7049808900B98FF282F
:100E700004D8FFE70D988000039006E00D996FF00D
:100E80001F0000EB81000390FFE70398079008988C
:100E90000068079A0F2191408843099991400843BF
:100EA000089908600E98C079C006002840F1C680F5
:100EB000FFE7FFE741F21800C4F20200016841F0C9
:100EC00001010160006800F0010006900698FFE74C
:100ED0000D9820F003000821C4F2010140580A9047
:100EE0000D9800F0030081000F2000FA01F10A982C
:100EF00088430A900F9840F60001C4F2010188422D
:100F000003D1FFE70020029026E00F9840F6004151
:100F1000C4F20101884203D1FFE70120019018E0EB
:100F20000F9841F20001C4F20101884203D1FFE7AA
:100F3000022000900AE00F9941F20042C4F201023F
:100F40000420914208BF03200090FFE70098019021
:100F5000FFE701980290FFE702980D9901F0030165
:100F6000890000FA01F10A9808430A900A980D993D
:100F700021F003010822C4F2010288500E98807902
:100F8000C006002809D5FFE70B9A40F20841C4F2D9
:100F9000010108681043086008E00B9A40F208411C
:100FA000C4F20101086890430860FFE70E98807959
:100FB0008006002809D5FFE70B9A40F20C41C4F2E5
:100FC000010108681043086008E00B9A40F20C41E8
:100FD000C4F20101086890430860FFE70E98807929
:100FE0008007002809D5FFE70B9A40F20441C4F2BC
:100FF000010108681043086008E00B9A40F20441C0
:10100000C4F20101086890430860FFE70E988079F8
:10101000C00748B1FFE70B9A40F20041C4F201015A
:1010200008681043086008E00B9A40F20041C4F2DF
:101030000101086890430860FFE7FFE7FFE70D98AC
:1010400001300D9079E610B07047000082B0019039
:10105000ADF802108DF801209DF8010028B1FFE7DE
:10106000BDF802000199086105E0BDF80200000426
:1010700001990861FFE702B07047000040F2F440B8
:10108000C2F200000068704780B58EB00C900C98DA
:1010900020B9FFE701208DF8370043E10C9890F864
:1010A0003D0040B9FFE70C99002081F83C000C9806
:1010B00000F09EFCFFE70C99242081F83D000C987D
:1010C0000168086820F0010008600C980168086851
:1010D00040F4004008600C980168086820F4004063
:1010E000086001F055F80A900C98406848F2A06139
:1010F000C0F2010188420BD8FFE70A9948F280420A
:10110000C0F21E020020914238BF012009900AE07F
:101110000A9940F60012C0F23D020020914238BF09
:1011200001200990FFE70998012804D1FFE7012079
:101130008DF83700F6E00A984DF68361C4F21B3152
:10114000A0FB0110800C0B900C980068406820F008
:101150003F000B9908430C99096848600C98006897
:10116000006A20F03F0008900C98406848F2A061A7
:10117000C0F20101884204D8FFE70B9801300790C4
:101180000EE00B984FF49671484344F6D351C1F2E8
:101190006201A0FB0101012000EB91100790FFE725
:1011A0000898079908430C99096808620C98006828
:1011B000C0694CF6FF71884306900C98406848F26D
:1011C000A061C0F2010188421FD8FFE70A980138E8
:1011D0000C9949684900B0FBF1F001306FF31F3002
:1011E000032803D8FFE7042005900BE00A98013894
:1011F0000C9949684900B0FBF1F001306FF31F30E2
:101200000590FFE7059804904CE00C98806868B959
:10121000FFE70A9801380C99496801EB4101B0FBDE
:10122000F1F001306FF31F3003900DE00A980138A0
:101230000C99496819225143B0FBF1F001300421A7
:1012400061F31F300390FFE70398000518B9FFE72B
:101250000120029023E00C98806868B9FFE70A98A3
:1012600001380C99496801EB4101B0FBF1F0013004
:101270006FF31F3001900DE00A9801380C9949680E
:1012800019225143B0FBF1F00130042161F31F300A
:101290000190FFE7019840F400400290FFE70298B8
:1012A0000490FFE70698049908430C990968C861FF
:1012B0000C980068006820F0C0000C9B1968DA697F
:1012C0001B6A1A43104308600C980068806848F253
:1012D000FF3188430C9A1168D36812691A4310438E
:1012E00088600C980068C06820F0FF000C9B1968AB
:1012F0005A699B691A431043C8600C9801680868D2
:1013000040F0010008600C99002008640C9A20212C
:1013100082F83D100C9908630C9981F83E008DF815
:101320003700FFE79DF837000EB080BD80B590B064
:10133000DDF848C00A90ADF826100892ADF81E30CE
:1013400000200690FFF79AFE05900A9890F83D005D
:10135000202840F04182FFE70A9805996A4611600B
:101360000221C0F210010122192301F0C3FC20B1B7
:10137000FFE702208DF82F0032E2FFE70A9890F88D
:101380003C00012804D1FFE702208DF82F0027E25E
:101390000A99012081F83C00FFE7FFE70A980068FE
:1013A0000068C00738B9FFE70A980168086840F08C
:1013B00001000860FFE70A980168086820F40060EF
:1013C00008600A99222081F83D000A99102081F8CE
:1013D0003E000A990020086408980A994862BDF8FE
:1013E0001E000A9948850A98408D0A9908850A992D
:1013F0000020CFF6FF70C8620A98BDF82610129A36
:10140000059B01F0C1FA20B1FFE701208DF82F0004
:10141000E6E10A98008DA0B9FFE7FFE700200490FD
:101420000A980068406904900A98006880690490EE
:101430000498FFE70A980168086840F400700860A3
:101440005DE00A98008D01281FD1FFE70A98016826
:10145000086820F480600860EFF3108072B60F9087
:10146000FFE7002003900A980068406903900A98FB
:101470000068806903900398FFE70A98016808688C
:1014800040F40070086062B638E00A98008D0228C7
:101490001FD1FFE70A980168086840F400600860FF
:1014A000EFF3108072B60E90FFE7002002900A98CA
:1014B0000068406902900A9800688069029002986A
:1014C000FFE70A980168086820F48060086062B647
:1014D00013E00A980168086840F480600860FFE73C
:1014E000002001900A980068406901900A980068FD
:1014F000806901900198FFE7FFE7FFE7FFE7FFE75B
:101500000A98008D002800F05581FFE70A98008DA9
:10151000032800F20781FFE70A98008D01281ED1F9
:10152000FFE70A981299059A01F012FD20B1FFE732
:1015300001208DF82F0053E10A98006800690A998C
:10154000496A08700A99486A013048620A99088D08
:10155000013808850A99488D01384885E1E00A98E4
:10156000008D022841D1FFE70A98129B05996A462F
:1015700011600421C0F20101002201F0BBFB20B187
:10158000FFE701208DF82F002AE1EFF3108072B6FB
:101590000D900A980168086840F4007008600A9885
:1015A000006800690A99496A08700A99486A013016
:1015B00048620A99088D013808850A99488D0138D2
:1015C000488562B60A98006800690A99496A0870F5
:1015D0000A99486A013048620A99088D01380885DD
:1015E0000A99488D013848859AE00A98129B059916
:1015F0006A4611600421C0F20101002201F07AFB69
:1016000020B1FFE701208DF82F00E9E00A9801687A
:10161000086820F480600860EFF3108072B60C90C8
:101620000A98006800690A99496A08700A99486A24
:10163000013048620A99088D013808850A99488D59
:101640000138488540F20400C2F20000006848F208
:101650001F51C5F2EB11A0FB0110C00844F6D35195
:10166000C1F26201A0FB01108009232148430690CA
:10167000FFE70698013806900698D0B9FFE70A9967
:10168000002008630A9A202182F83D100A9981F807
:101690003E000A99086C40F02000086462B6FFE73B
:1016A0000A99002081F83C00FFE701208DF82F0007
:1016B00096E0FFE70A980068406900F00401002006
:1016C000B0EB910FD5D0FFE70A980168086840F4A5
:1016D000007008600A98006800690A99496A0870F1
:1016E0000A99486A013048620A99088D01380885CC
:1016F0000A99488D0138488562B60A9800680069E1
:101700000A99496A08700A99486A013048620A9938
:10171000088D013808850A99488D01384885FFE70A
:10172000FFE746E00A981299059A01F011FC20B1F2
:10173000FFE701208DF82F0052E00A980068006949
:101740000A99496A08700A99486A013048620A99F8
:10175000088D013808850A99488D013848850A980E
:101760000068406900F004010120B0EB910F1FD127
:10177000FFE70A98008D032807D1FFE70A98016860
:10178000086820F480600860FFE70A980068006934
:101790000A99496A08700A99486A013048620A99A8
:1017A000088D013808850A99488D01384885FFE77A
:1017B000FFE7A5E60A99202081F83D000A9900205C
:1017C00081F83E00FFE70A99002081F83C00FFE71E
:1017D00000208DF82F0003E002208DF82F00FFE796
:1017E0009DF82F0010B080BD80B588B0DDF828C00E
:1017F0000690ADF816100492ADF80E30FFF73EFCDF
:101800000290069890F83D00202840F0E980FFE71C
:10181000069802996A4611600221C0F21001012265
:10182000192301F067FA20B1FFE702208DF81F00AD
:10183000DAE0FFE7069890F83C00012804D1FFE7C2
:1018400002208DF81F00CFE00699012081F83C00AE
:10185000FFE7FFE7069800680068C00738B9FFE7B0
:1018600006980168086840F001000860FFE70698E4
:101870000168086820F4006008600699212081F85A
:101880003D000699102081F83E000699002008646A
:10189000049806994862BDF80E0006994885069896
:1018A000408D0699088506990020CFF6FF70C86222
:1018B0000698BDF816100A9A029B01F03BF920B178
:1018C000FFE701208DF81F008EE0FFE70020019068
:1018D0000698006840690190069800688069019048
:1018E0000198FFE7FFE70698008D002860D0FFE72A
:1018F00006980A99029A01F099FB80B1FFE70698D1
:10190000006C042807D1FFE706980168086840F4D6
:1019100000700860FFE701208DF81F0064E0069862
:101920000168406A007808610699486A0130486297
:101930000699488D013848850699088D0138088533
:1019400006980068406900F004010120B0EB910F97
:1019500016D1FFE70698008D90B1FFE70698016861
:10196000406A007808610699486A01304862069921
:10197000488D013848850699088D01380885FFE7AC
:1019800006980A99029A01F05FF980B1FFE706987C
:10199000006C042807D1FFE706980168086840F446
:1019A00000700860FFE701208DF81F001CE09AE737
:1019B00006980168086840F40070086006992020C5
:1019C00081F83D000699002081F83E00FFE7069966
:1019D000002081F83C00FFE700208DF81F0003E0A5
:1019E00002208DF81F00FFE79DF81F0008B080BDA2
:1019F00080B588B007900020069005900490039071
:101A00000798006845F20041C4F2000188422CD1D9
:101A1000FFE7FFE741F21800C4F20200016841F05D
:101A200008010160006800F0080002900298FFE7DA
:101A3000C0200390122004900320069040F600403E
:101A4000C4F2010003A9FFF771F9FFE741F21C009E
:101A5000C4F20200016841F400110160006800F462
:101A6000001001900198FFE7FFE708B080BD00007B
:101A700040F20800C2F20000027840F2F441C2F2E3
:101A800000010868104408607047000080B542F209
:101A90000001C4F20201086840F010000860032051
:101AA00000F08CF80F2000F005F800F03BF8002063
:101AB00080BD000080B582B0009040F20400C2F208
:101AC0000000006840F20801C2F200010A784FF4F9
:101AD0007A71B1FBF2F1B0FBF1F000F019FF20B127
:101AE000FFE701208DF8070018E000980F280DD8B7
:101AF000FFE700994FF0FF30002200F045F8009812
:101B000040F20C01C2F20001086003E001208DF8F0
:101B1000070003E000208DF80700FFE79DF80700AD
:101B200002B080BD83B0FFE741F21800C4F20200AA
:101B3000016841F001010160006800F001000290BD
:101B40000298FFE7FFE741F21C00C4F202000168BF
:101B500041F080510160006800F0805001900198D0
:101B6000FFE7FFE70421C4F2010108680090009834
:101B700020F0E0600090009840F000700090009825
:101B80000860FFE703B0704780B586B08DF8170096
:101B9000049103920020029002F028FA02909DF92D
:101BA0001700019002980499039A01F059FB01462D
:101BB000019802F023FA06B080BD000080B582B023
:101BC0000190019802F03CFA02B080BD80B588B067
:101BD00007900020069005900490039002900798CB
:101BE0000190012866D0FFE70198022800F0A58047
:101BF000FFE70198102840F0B080FFE741F20400B1
:101C0000C4F202000068039041F20000C4F2020036
:101C10000068C00100284CD5FFE70398C0F383415A
:101C200045F20060C0F60000405C04909DF80E0094
:101C3000C007F0B1FFE741F20400C4F202000068FF
:101C4000C0F3404145F21060C0F60000405C0690D1
:101C50009DF80E00C00758B1FFE7069941F2002039
:101C6000C0F27A00B0FBF1F0049948430590FFE719
:101C700007E0049840F60011C0F23D01484305908A
:101C8000FFE741F20400C4F20200006840020028AD
:101C900003D5FFE7059802900AE0059840004AF650
:101CA000AB21CAF6AA21A0FB011040080290FFE771
:101CB000FFE753E041F22000C4F202000068039005
:101CC000039800F44070B0F5807F0AD1FFE79DF8DB
:101CD0000C008007002804D5FFE74FF40040029075
:101CE0002AE0039800F44070B0F5007F0DD1FFE7C3
:101CF00041F22400C4F2020000688007002804D5E5
:101D0000FFE749F64040029015E0039800F4407068
:101D1000B0F5407F0DD1FFE741F20000C4F20200B0
:101D200000688003002804D5FFE74FF224400290AA
:101D300000E0FFE7FFE7FFE710E000F03BFA41F2C9
:101D40000401C4F20201096801F44042022101EBDE
:101D50005231B0FBF1F0029000E0FFE7029808B0CA
:101D600080BD000080B586B00490002003900290F2
:101D700004980078C007002800F0AC80FFE700203E
:101D80008DF8070041F21C00C4F202000068C00098
:101D9000002813D4FFE7FFE741F21C00C4F2020061
:101DA000016841F080510160006800F080500090AF
:101DB0000098FFE701208DF80700FFE747F20000D9
:101DC000C4F200000068C005002822D4FFE747F2F3
:101DD0000001C4F20001086840F480700860FFF759
:101DE0004DF90390FFE747F20000C4F200000068DD
:101DF000C00500280CD4FFE7FFF740F90399401A0B
:101E0000652804D3FFE703208DF817008AE0EAE78E
:101E1000FFE741F22000C4F20200006800F44070C5
:101E200002900298E0B3FFE702980499496801F430
:101E30004071884234D0FFE741F22001C4F2020130
:101E4000086820F44070029040F24042C4F24222FE
:101E50000120106000201060029808609DF80800C2
:101E6000C007E0B1FFE7FFF709F90390FFE741F290
:101E70002000C4F202000068800700280ED4FFE7AB
:101E8000FFF7FCF80399401A41F28931884204D3E4
:101E9000FFE703208DF8170044E0E8E7FFE7FFE7DE
:101EA00041F22001C4F20201086820F44070049A53
:101EB0005268104308609DF80700012809D1FFE728
:101EC00041F21C01C4F20201086820F08050086051
:101ED000FFE7FFE704980078800700280CD5FFE7AC
:101EE00041F20401C4F20201086820F44040049A5F
:101EF000926810430860FFE704980078C006002845
:101F00000CD5FFE741F20401C4F20201086820F495
:101F10008000049AD26810430860FFE700208DF823
:101F20001700FFE79DF8170006B080BD80B584B0AC
:101F300002900191029820B9FFE701208DF80F006F
:101F40001BE1019842F20001C4F20201096801F0AC
:101F50000701884216D9FFE742F20000C4F20200EE
:101F6000016821F00701019A11430160006800F047
:101F700007000199884204D0FFE701208DF80F0087
:101F8000FBE0FFE702980078800700282AD5FFE7EA
:101F9000029800784007002809D5FFE741F20401C4
:101FA000C4F20201086840F4E0600860FFE70298AC
:101FB00000780007002809D5FFE741F20401C4F2C8
:101FC0000201086840F460500860FFE741F2040134
:101FD000C4F20201086820F0F000029A92681043EF
:101FE0000860FFE702980078C007002860D0FFE78C
:101FF0000298406801280ED1FFE741F20000C4F2C8
:10200000020000688003002804D4FFE701208DF857
:102010000F00B2E021E00298406802280ED1FFE7ED
:1020200041F20000C4F2020000688001002804D4DC
:10203000FFE701208DF80F009FE00DE041F2000066
:10204000C4F2020000688007002804D4FFE70120E2
:102050008DF80F0091E0FFE7FFE741F20401C4F2C1
:102060000201086820F00300029A526810430860D9
:10207000FFF704F80090FFE741F20400C4F2020009
:10208000006800F00C0002994968B0EB810F0ED097
:10209000FFE7FEF7F3FF0099401A41F289318842C9
:1020A00004D3FFE703208DF80F0066E0E4E7FFE7C5
:1020B000019842F20001C4F20201096801F007012F
:1020C000884216D2FFE742F20000C4F20200016823
:1020D00021F00701019A11430160006800F0070038
:1020E0000199884204D0FFE701208DF80F0044E0F9
:1020F000FFE702980078400700280CD5FFE741F27F
:102100000401C4F20201086820F4E060029AD26877
:1021100010430860FFE702980078000700280DD5FB
:10212000FFE741F20401C4F20201086820F46050A4
:10213000029A126940EAC2000860FFE700F04CF81A
:1021400041F20401C4F202010968C9B20A0945F268
:10215000E851C0F60001895CC84040F20401C2F2B7
:102160000001086040F20C00C2F200000068FFF7B6
:10217000A1FC00208DF80F00FFE79DF80F0004B0D0
:1021800080BD000040F20400C2F200000068704709
:1021900080B5FFF7F7FF41F20401C4F202010968BC
:1021A000C1F3022245F2F851C0F60001895CC84033
:1021B00080BD000080B5FFF7E5FF41F20401C4F2E5
:1021C00002010968C1F3C22245F2F851C0F60001CC
:1021D000895CC84080BD000086B000200590049056
:1021E00003900290019041F20400C4F202000068E2
:1021F0000590059800F00C000146009100283FD0A2
:10220000FFE70098042804D0FFE70098082806D0CC
:1022100037E041F20020C0F27A00019037E00598E3
:10222000C0F3834145F21260C0F60000405C0290AA
:102230009DF81600C007C0B1FFE741F20400C4F2E8
:1022400002000068C0F3404145F22260C0F6000081
:10225000405C0490029841F20021C0F27A014843A8
:102260000499B0FBF1F0039007E0029840F60011EA
:10227000C0F23D0148430390FFE70398019006E058
:10228000FFE741F20020C0F27A000190FFE70198D9
:1022900006B0704780B586B00490049820B9FFE777
:1022A00001208DF817002EE304980078C00700285D
:1022B00000F0AE80FFE741F20400C4F202000068C3
:1022C00000F00C00042813D0FFE741F20400C4F230
:1022D0000200006800F00C0008281BD1FFE741F263
:1022E0000400C4F202000068C003002812D5FFE712
:1022F00041F20000C4F2020000688003002808D503
:10230000FFE70498406820B9FFE701208DF8170027
:10231000F9E27CE0FFE704984068B0F5803F09D11E
:10232000FFE741F20001C4F20201086840F4803086
:10233000086032E00498406868B9FFE741F20001A4
:10234000C4F20201086820F480300860086820F4B4
:102350008020086020E004984068B0F5A02F0DD1DF
:10236000FFE741F20001C4F20201086840F4802056
:102370000860086840F4803008600CE041F2000119
:10238000C4F20201086820F480300860086820F474
:1023900080200860FFE7FFE7FFE7FFE70498406859
:1023A000D0B1FFE7FEF76AFE0390FFE741F20000BD
:1023B000C4F202000068800300280CD4FFE7FEF797
:1023C0005DFE0399401A652804D3FFE703208DF8CA
:1023D000170098E2EAE719E0FEF750FE0390FFE7E6
:1023E00041F20000C4F202000068800300280CD50E
:1023F000FFE7FEF743FE0399401A652804D3FFE781
:1024000003208DF817007EE2EAE7FFE7FFE7FFE72A
:10241000049800788007002840F18D80FFE741F2A2
:102420000400C4F20200006810F00C0F13D0FFE7A4
:1024300041F20400C4F20200006800F00C00082819
:1024400029D1FFE741F20400C4F202000068C00392
:10245000002820D4FFE741F20000C4F20200006827
:102460008007002809D5FFE704980069012804D0F7
:10247000FFE701208DF8170045E241F20001C4F2A8
:102480000201086820F0F800049A526940EAC2008C
:102490000860FFE74EE00498006958B3FFE70021A9
:1024A000C4F2422101200860FEF7E8FD0390FFE737
:1024B00041F20000C4F202000068800700280CD43A
:1024C000FFE7FEF7DBFD0399401A032804D3FFE77B
:1024D00003208DF8170016E2EAE741F20001C4F28A
:1024E0000201086820F0F800049A526940EAC2002C
:1024F00008601EE00021C4F2422100200860FEF7BF
:10250000BDFD0390FFE741F20000C4F20200006845
:10251000800700280CD5FFE7FEF7B0FD0399401AAD
:10252000032804D3FFE703208DF81700EBE1EAE767
:10253000FFE7FFE7FFE7049800780007002848D589
:10254000FFE70498806918B3FFE740F28041C4F2C6
:10255000422101200860FEF791FD0390FFE741F260
:102560002400C4F202000068800700280CD4FFE7B2
:10257000FEF784FD0399401A032804D3FFE70320E4
:102580008DF81700BFE1EAE7012001F095FC1FE09C
:1025900040F28041C4F2422100200860FEF76EFD47
:1025A0000390FFE741F22400C4F2020000688007B4
:1025B00000280CD5FFE7FEF761FD0399401A0328B8
:1025C00004D3FFE703208DF817009CE1EAE7FFE75B
:1025D000FFE7049800784007002840F1D880FFE723
:1025E00000208DF8070041F21C00C4F202000068D0
:1025F000C000002813D4FFE7FFE741F21C00C4F23B
:102600000200016841F080510160006800F08050D4
:1026100000900098FFE701208DF80700FFE747F2E0
:102620000000C4F200000068C005002822D4FFE7C3
:1026300047F20001C4F20001086840F480700860AD
:10264000FEF71CFD0390FFE747F20000C4F2000014
:102650000068C00500280CD4FFE7FEF70FFD0399C2
:10266000401A652804D3FFE703208DF817004AE1DC
:10267000EAE7FFE7FFE70498C068012809D1FFE710
:1026800041F22001C4F20201086840F00100086034
:1026900031E00498C06868B9FFE741F22001C4F254
:1026A0000201086820F001000860086820F00400BA
:1026B00008601FE00498C06805280DD1FFE741F2CB
:1026C0002001C4F20201086840F0040008600868B4
:1026D00040F0010008600CE041F22001C4F2020168
:1026E000086820F001000860086820F00400086015
:1026F000FFE7FFE7FFE7FFE70498C068E0B1FFE707
:10270000FEF7BCFC0390FFE741F22000C4F2020098
:102710000068800700280ED4FFE7FEF7AFFC03999E
:10272000401A41F28931884204D3FFE703208DF833
:102730001700E8E0E8E71BE0FEF7A0FC0390FFE7E6
:1027400041F22000C4F202000068800700280ED584
:10275000FFE7FEF793FC0399401A41F28931884262
:1027600004D3FFE703208DF81700CCE0E8E7FFE78C
:102770009DF80700012809D1FFE741F21C01C4F2CE
:102780000201086820F080500860FFE7FFE7049826
:10279000C069002800F0B380FFE741F20400C4F2F2
:1027A0000200006800F00C00082800F08280FFE7BB
:1027B0000498C06902285CD1FFE76021C4F242217D
:1027C00000200860FEF75AFC0390FFE741F200008A
:1027D000C4F202000068800100280CD5FFE7FEF774
:1027E0004DFC0399401A032804D3FFE703208DF81A
:1027F000170088E0EAE70498006AB0F5803F0CD142
:10280000FFE741F20401C4F20201086820F400303D
:10281000049A926810430860FFE741F20401C4F291
:102820000201086820F47410049B1A6A5B6A1A4358
:10283000104308606021C4F2422101200860FEF7C5
:102840001DFC0390FFE741F20000C4F202000068A3
:10285000800100280CD4FFE7FEF710FC0399401A12
:10286000032804D3FFE703208DF817004BE0EAE7C5
:102870001EE06021C4F2422100200860FEF7FEFB4A
:102880000390FFE741F20000C4F2020000688001FB
:1028900000280CD5FFE7FEF7F1FB0399401A032847
:1028A00004D3FFE703208DF817002CE0EAE7FFE7E9
:1028B00024E00498C069012804D1FFE701208DF8C5
:1028C000170020E041F20400C4F202000068029008
:1028D000029800F480300499096A884208D1FFE721
:1028E000029800F470100499496A884204D0FFE706
:1028F00001208DF8170006E0FFE7FFE7FFE7002063
:102900008DF81700FFE79DF8170006B080BD0000A6
:1029100080B582B00190019801F0EEFA02B080BD5E
:10292000FFE7FEE782B0009000980068406900F47D
:1029300080610120B0EB912F1ED1FFE70098016864
:102940006FF480604861009900200863009A20219C
:1029500082F83D10009981F83E000099086C40F023
:1029600004000864FFE70099002081F83C00FFE7BD
:1029700001208DF8070003E000208DF80700FFE735
:102980009DF8070002B0704780B588B00690ADF89A
:102990001610049203930698C06A02900698016884
:1029A000086840F4806008600298082809D0FFE7B2
:1029B0000298012805D0FFE7029810F5803F07D163
:1029C000FFE706980168086840F4807008600DE031
:1029D0000698006B112807D1FFE706980168086880
:1029E00040F48070086000E0FFE7FFE70698049B72
:1029F00003996A4611604FF00111002200F07AF944
:102A000080B1FFE7069800680068C005002805D57A
:102A1000FFE706994FF400700864FFE703208DF884
:102A20001F0082E006980069B0F5804F08D1FFE7EB
:102A30009DF8160040F0010006990968086162E0FF
:102A4000BDF8160000F44070C009F030069909681E
:102A500008610698049A039B0821C0F2010100F066
:102A6000CDF920B1FFE701208DF81F005DE09DF852
:102A700016000699096808610698049A039B0221CA
:102A8000C0F2010100F0BAF920B1FFE701208DF892
:102A90001F004AE0FFE700200190069800684069A7
:102AA000019006980068806901900198FFE70698F8
:102AB0000168086840F4807008600698049B0399D8
:102AC0006A4611604FF00111002200F013F980B145
:102AD000FFE7069800680068C005002805D5FFE7F5
:102AE00006994FF400700864FFE703208DF81F007B
:102AF0001BE0BDF8160000F44070C009F1300699E3
:102B000009680861FFE70698049A039B0221C0F256
:102B1000010100F073F920B1FFE701208DF81F00DB
:102B200003E000208DF81F00FFE79DF81F0008B0AC
:102B300080BD000080B588B00690ADF816100492F4
:102B400003930698C06A02900298082809D0FFE70C
:102B50000298012805D0FFE7029810F5803F07D1C1
:102B6000FFE706980168086840F4807008600DE08F
:102B70000698006B122807D1FFE7069801680868DD
:102B800040F48070086000E0FFE7FFE70698049BD0
:102B900003996A4611604FF00111002200F0AAF873
:102BA00080B1FFE7069800680068C005002805D5D9
:102BB000FFE706994FF400700864FFE703208DF8E3
:102BC0001F003CE006980069B0F5804F08D1FFE790
:102BD000BDF8160000F0FE000699096808611CE0C7
:102BE000BDF8160000F44070C009F030069909687D
:102BF00008610698049A039B0821C0F2010100F0C5
:102C0000FDF820B1FFE701208DF81F0017E09DF8C7
:102C10001600069909680861FFE70698049A039B65
:102C20000221C0F2010100F0E9F820B1FFE7012024
:102C30008DF81F0003E000208DF81F00FFE79DF8CE
:102C40001F0008B080BD000080B584B002900191E3
:102C50000092FFE702980068406900F0040100203C
:102C6000B0EB910F3ED1FFE70298FFF75BFE20B17A
:102C7000FFE701208DF80F0038E00198013080B3A4
:102C8000FFE7FEF7FBF90099401A0199884203D843
:102C9000FFE7019820BBFFE702980068406900F059
:102CA00004010020B0EB910F19D1FFE70299002039
:102CB0000863029A202182F83D10029981F83E00B3
:102CC0000299086C40F020000864FFE70299002098
:102CD00081F83C00FFE701208DF80F0006E0FFE7D8
:102CE000FFE7B7E700208DF80F00FFE79DF80F0022
:102CF00004B080BD80B588B0DDF828C0069005918D
:102D00008DF813200393FFE79DF8160001280CD1DE
:102D1000FFE7069800684069BDF814100840401AA3
:102D2000B0FA80F0400902900BE0069800688069D4
:102D3000BDF814100840401AB0FA80F04009029023
:102D4000FFE702989DF8131088424FD1FFE70398E0
:102D50000130002849D0FFE7FEF790F90A99401AA0
:102D60000399884203D8FFE70398E8BBFFE79DF883
:102D7000160001280CD1FFE7069800684069BDF8ED
:102D800014100840401AB0FA80F0400901900BE09E
:102D9000069800688069BDF814100840401AB0FA1F
:102DA00080F040090190FFE701989DF813108842D8
:102DB00019D1FFE7069900200863069A202182F8BE
:102DC0003D10069981F83E000699086C40F02000FD
:102DD0000864FFE70699002081F83C00FFE7012026
:102DE0008DF81F0006E0FFE7FFE78DE700208DF874
:102DF0001F00FFE79DF81F0008B080BD80B588B0B8
:102E00000690059104920393FFE79DF816000128B0
:102E10000CD1FFE7069800684069BDF8141008401F
:102E2000401AB0FA80F0400902900BE00698006862
:102E30008069BDF814100840401AB0FA80F04009CB
:102E40000290FFE7029800287AD1FFE70698006811
:102E5000406900F480610120B0EB912F24D1FFE79D
:102E600006980168086840F40070086006980168D8
:102E70006FF480604861069900200863069A20215B
:102E800082F83D10069981F83E000699086C40F0E2
:102E900004000864FFE70699002081F83C00FFE782
:102EA00001208DF81F004FE004980130002846D023
:102EB000FFE7FEF7E3F80399401A0499884203D824
:102EC000FFE70498D0BBFFE79DF8160001280CD15E
:102ED000FFE7069800684069BDF814100840401AE2
:102EE000B0FA80F0400901900BE006980068806914
:102EF000BDF814100840401AB0FA80F04009019063
:102F0000FFE70198C8B9FFE7069900200863069A11
:102F1000202182F83D10069981F83E000699086C40
:102F200040F020000864FFE70699002081F83C008B
:102F3000FFE701208DF81F0006E0FFE7FFE764E7E9
:102F400000208DF81F00FFE79DF81F0008B080BD2E
:102F500080B584B0029001910092FFE7029800686A
:102F6000406900F040010020B0EB911F56D1FFE70F
:102F700002980068406900F010010120B0EB111FB9
:102F80001CD1FFE7029801686FF0100048610299B8
:102F900000200863029A202182F83D10029981F8EE
:102FA0003E000299086C0864FFE70299002081F84E
:102FB0003C00FFE701208DF80F0033E0FEF75EF8DC
:102FC0000099401A0199884203D8FFE7019820BB75
:102FD000FFE702980068406900F040010020B0EB74
:102FE000911F19D1FFE7029900200863029A20215E
:102FF00082F83D10029981F83E000299086C40F079
:1030000020000864FFE70299002081F83C00FFE7F8
:1030100001208DF80F0005E0FFE79FE700208DF805
:103020000F00FFE79DF80F0004B080BD80B584B0AD
:10303000029001910092FFE7029800684069C1B2D6
:103040000020B0EBD11F3DD1FFE70298FFF76AFCEB
:1030500020B1FFE701208DF80F0037E00198013023
:1030600078B3FFE7FEF70AF80099401A0199884201
:1030700003D8FFE7019818BBFFE702980068406992
:10308000C1B20020B0EBD11F19D1FFE70299002097
:103090000863029A202182F83D10029981F83E00CF
:1030A0000299086C40F020000864FFE702990020B4
:1030B00081F83C00FFE701208DF80F0006E0FFE7F4
:1030C000FFE7B9E700208DF80F00FFE79DF80F003C
:1030D00004B080BD80B584B00021039102910191BC
:1030E00040F27040C2F20000009042F20042C4F28E
:1030F000010202608160017301754FF46022C261B8
:10310000416001210161FDF751FA18B1FFE7FDF7B8
:1031100063F9FFE70120019002900020039040F244
:103120007040C2F2000001A9FDF75EF918B1FFE797
:10313000FDF752F9FFE704B080BD000080B58CB008
:1031400000200B900A9009900890FFE741F21800C8
:10315000C4F20200016841F010010160006800F053
:10316000100007900798FFE7FFE741F21800C4F24C
:103170000200016841F020010160006800F02000B9
:1031800006900698FFE7FFE741F21800C4F202003C
:10319000016841F004010160006800F0040005903E
:1031A0000598FFE7FFE741F21800C4F2020001684A
:1031B00041F008010160006800F0080004900498E4
:1031C000FFE741F20000C4F2010001904FF400510A
:1031D000009100220292FDF739FF009A01980299AE
:1031E0000892012209920A9102210B9108A90391E8
:1031F000FDF79CFD029803992022089209900A90FD
:1032000040F60040C4F20100FDF790FD0CB080BD17
:1032100080B582B040F2A040C2F20000019045F2B9
:103220000041C4F20001016048F2A061C0F2010156
:10323000416000218160C1604FF4804202614161C0
:103240008161C1610162FDF71FFF18B1FFE7FDF762
:10325000C3F8FFE702B080BDFFE7FEE7FFE7FEE748
:1032600088B0079006910592079800F00700049037
:103270000498C0F10700052803D3FFE7042001905C
:1032800004E00498C0F107000190FFE70198039063
:1032900004980430062803D8FFE70020009003E0DC
:1032A000049803380090FFE700980290069803996D
:1032B000012202FA01F101390840029B9840059968
:1032C0009A40013A1140084308B0704781B000208D
:1032D0008DF80200FFE79DF80200072823DCFFE7D6
:1032E00000208DF80300FFE79DF803007F2813DC22
:1032F000FFE79DF8021040F27000C2F2000000EB00
:10330000C1119DF8032000208854FFE79DF80300B9
:1033100001308DF80300E7E7FFE79DF80200013078
:103320008DF80200D7E701B07047000082B08DF839
:1033300007008DF806108DF805208DF804309DF8F3
:103340000700802801DBFFE764E09DF806004028C5
:1033500001DBFFE75EE09DF807009DF805100844DB
:10336000812807DBFFE79DF80700C0F180008DF89A
:103370000500FFE79DF806009DF804100844412869
:1033800007DBFFE79DF80600C0F140008DF8040060
:10339000FFE79DF806008DF80200FFE79DF80200A8
:1033A0009DF806109DF804201144884232DAFFE7A8
:1033B0009DF807008DF80300FFE79DF803009DF8D6
:1033C00007109DF80520114488421CDAFFE79DF89C
:1033D000021001F00702012000FA02F36FF0700002
:1033E00000EA011140F27000C2F2000001449DF8B1
:1033F0000320885C98438854FFE79DF80300013060
:103400008DF80300D9E7FFE79DF8020001308DF841
:103410000200C3E702B0704780B584B08DF80F009A
:103420008DF80E108DF80D208DF80C309DF80D00E4
:10343000C0F10100ADF806000020ADF80A009DF8CB
:103440000D00ADF808009DF80F00BDF80A10084403
:103450009DF80E10BDF808201144C0B2C9B200F0AA
:1034600057F99DF80F00BDF80A10401A9DF80E108C
:10347000BDF80820891AC0B2C9B200F049F99DF818
:103480000F00BDF8081008449DF80E10BDF80A2082
:103490001144C0B2C9B200F03BF99DF80F00BDF86D
:1034A0000810401A9DF80E10BDF80A20891AC0B203
:1034B000C9B200F02DF99DF80C00F8B1FFE7BDF896
:1034C00008004042ADF80400FFE7BDF90400BDF973
:1034D0000810884211DAFFE79DF80F009DF80E10E2
:1034E000BDF804201144C9B200F012F9FFE7BDF89D
:1034F00004000130ADF80400E7E7FFE7FFE7BDF99E
:103500000A00BDF90810884280F2FF80FFE7BDF88D
:103510000A000130ADF80A00BDF90600B0F1FF3F26
:103520000ADCFFE7BDF80A10BDF8060000EB410019
:103530000130ADF8060011E0BDF808000138ADF823
:103540000800BDF80A00BDF80810411ABDF80600D1
:1035500000EB41000130ADF80600FFE79DF80F00D9
:10356000BDF80A1008449DF80E10BDF8082011445B
:10357000C0B2C9B200F0CCF89DF80F00BDF8081039
:1035800008449DF80E10BDF80A201144C0B2C9B21B
:1035900000F0BEF89DF80F00BDF80A10401A9DF823
:1035A0000E10BDF80820891AC0B2C9B200F0B0F8F8
:1035B0009DF80F00BDF80810401A9DF80E10BDF8D8
:1035C0000A20891AC0B2C9B200F0A2F89DF80F0013
:1035D000BDF80A1008449DF80E10BDF80820891A9D
:1035E000C0B2C9B200F094F89DF80F00BDF8081001
:1035F00008449DF80E10BDF80A20891AC0B2C9B25D
:1036000000F086F89DF80F00BDF80A10401A9DF8EA
:103610000E10BDF808201144C0B2C9B200F078F80D
:103620009DF80F00BDF80810401A9DF80E10BDF867
:103630000A201144C0B2C9B200F06AF89DF80C002B
:10364000002861D0FFE7BDF808004042ADF8040053
:10365000FFE7BDF90400BDF90810884223DAFFE74F
:103660009DF80F00BDF80A1008449DF80E10BDF833
:1036700004201144C0B2C9B200F04AF89DF80F000E
:10368000BDF80A10401A9DF80E10BDF80420114430
:10369000C0B2C9B200F03CF8FFE7BDF80400013049
:1036A000ADF80400D5E7BDF80A004042ADF80400CB
:1036B000FFE7BDF90400BDF90A10884223DAFFE7ED
:1036C0009DF80F00BDF80810401A9DF80E10BDF8C7
:1036D00004201144C0B2C9B200F01AF89DF80F00DE
:1036E000BDF8081008449DF80E10BDF804201144E0
:1036F000C0B2C9B200F00CF8FFE7BDF80400013019
:10370000ADF80400D5E7FFE7F9E604B080BD00009E
:1037100081B08DF803008DF802109DF80300802819
:1037200001DBFFE71BE09DF80200402801DBFFE71B
:1037300015E09DF8021001F00702012000FA02F3E3
:103740006FF0700000EA011140F27000C2F2000058
:1037500001449DF80320885C18438854FFE701B0BA
:103760007047000080B58AB000200990FFE70998F3
:10377000C0087C2812D8FFE700200890FFE70898CF
:10378000C0087C2805D8FFE7FFE7089801300890BB
:10379000F5E7FFE7099801300990E8E7FFE741F214
:1037A0001800C4F20200016841F0080101600068DD
:1037B00000F0080007900798FFE71120049003200D
:1037C000069040F20000C2F200000088039040F62C
:1037D0000040C4F20100009003A90191FDF7A6FA90
:1037E0000098019940F20202C2F20002128803928C
:1037F000FDF79CFA0120029000F0F6FA029800F022
:1038000007FB0AB080BD000080B582B08DF80700CC
:1038100000208DF80600FFE79DF80600072816DC5B
:10382000FFE79DF807009DF806108840C0B2C00968
:1038300000F0EEFA012000F0D7FA002000F0D4FAF0
:10384000FFE79DF8060001308DF80600E4E701204F
:1038500000F0CAFA002000F0C7FA02B080BD0000F4
:1038600080B582B00120009000F0D2FA009800F0FC
:10387000BBFA0020019000F0CBFA019800F0B4FAF6
:1038800002B080BD80B582B0002000F0C1FA0120F6
:10389000019000F0A9FA019800F0BAFA02B080BDD8
:1038A00080B5FFF75FFFAE2000F0C6FAD52000F02C
:1038B000C3FA802000F0C0FAA82000F0BDFA3F2033
:1038C00000F0BAFAD32000F0B7FA002000F0B4FA02
:1038D000402000F0B1FAA12000F0AEFAC82000F0BC
:1038E000ABFADA2000F0A8FA122000F0A5FA812045
:1038F00000F0A2FACF2000F09FFAD92000F09CFA45
:10390000F12000F099FADB2000F096FA302000F068
:1039100093FAA42000F090FAA62000F08DFA8D20F2
:1039200000F08AFA142000F087FAAF2000F084FA41
:10393000FFF7CCFC00F034FA80BD000083B00290A9
:10394000019101200090FFE70198411E019128B1EB
:10395000FFE70299009848430090F5E7009803B00C
:103960007047000080B582B08DF807008DF8061012
:103970009DF8070040F0B00000F05EFA9DF80600E8
:103980000009103000F058FA9DF8060000F00F0012
:1039900000F052FA02B080BD80B582B08DF8070009
:1039A0008DF806108DF805208DF804309DF8040080
:1039B000082815D1FFE79DF807009DF806109DF82F
:1039C000053045F65E02C0F6000202EB0312A2F5D6
:1039D00000726B461A600822102300F0B9F81BE051
:1039E0009DF80400062816D1FFE79DF807009DF812
:1039F00006109DF8052002EB420345F22462C0F652
:103A0000000202EB4302C03A6B461A60062208230A
:103A100000F09EF8FFE7FFE702B080BDB0B58CB0C4
:103A20009C4613468E46044612981199109A8DF8BA
:103A30002F408DF82EE0CDF824C008938DF81F207C
:103A40008DF81E108DF81D000898099900231A465C
:103A500001F0C3FD50B9FFE79DF82F009DF82E102F
:103A60009DF81D302B22FFF797FF0DE09DF82F00EA
:103A70009DF82E109DF81D302D22FFF78DFF09981F
:103A800080F000400990FFE70898099901F02AFAB0
:103A90000590059801F06AFA02460B4608980999C4
:103AA00001F08AFC099108909DF81E100A20FFF78A
:103AB00045FF06900898029009980390069801F037
:103AC00055FA024602980B46039901F0DBFA00F022
:103AD00075FF01F007FA049004980699B0FBF1F124
:103AE0000598084405909DF82F009DF81DC060447E
:103AF0009DF82E10059A9DF81F30EE46CEF800C0B6
:103B0000C0B200F0D3F89DF82F109DF81F000130CF
:103B10009DF81D3000FB03109DF82E10C0B22E2220
:103B2000FFF73AFF9DF82F109DF81F0002309DF817
:103B30001DC000FB0C109DF82E10049A9DF81E303D
:103B4000EE46CEF800C0C0B200F0B0F80CB0B0BD88
:103B500080B582B0DDF810C08DF807008DF8061032
:103B60008DF805208DF804309DF80700802801DBD2
:103B7000FFE798E09DF80600402801DBFFE792E0B0
:103B80009DF807009DF806109DF805209DF804306B
:103B9000FFF7CCFB00208DF80200FFE79DF8020044
:103BA0009DF80410013901EB5172012101EBE20192
:103BB000884278DAFFE700208DF80300FFE79DF8E0
:103BC00003009DF80510884266DAFFE79DF80700BC
:103BD0009DF803100844802801DBFFE75CE09DF8B6
:103BE00006109DF8020000EBD100082801DBFFE77A
:103BF00059E004999DF802009DF805309DF80320D6
:103C000000FB0323CB5C9DF8061001F0070C03FAC0
:103C10000CF300EBD10140F27000C2F2000000EBA7
:103C2000C1119DF807000244885C184388549DF830
:103C300006109DF8020000EBD1000130082801DBDE
:103C4000FFE723E004999DF802009DF805209DF808
:103C5000033000FB02328A5C9DF8061001F0070C6D
:103C6000CCF1080C22FA0CF200EBD10140F270000A
:103C7000C2F2000000EBC1109DF807101944014486
:103C800091F88000104381F88000FFE79DF8030061
:103C900001308DF8030092E7FFE79DF80200013044
:103CA0008DF802007AE702B080BD000080B586B0D2
:103CB000844608988DF817C08DF8161004928DF878
:103CC0000F308DF80E0000208DF80D00FFE79DF8F5
:103CD0000D009DF80F10884234DAFFE79DF8172099
:103CE0009DF80D009DF80E1000FB012102919DF83A
:103CF00016100191049900919DF80F10C0430144E2
:103D00000A20FFF71BFE009A019903460298B2FBB6
:103D1000F3F24CF6CD43CCF6CC43A2FB03C3DB0855
:103D200003EB8303A2EB430242F030029DF80E3016
:103D3000C0B2FFF731FEFFE79DF80D0001308DF8AE
:103D40000D00C4E706B080BD80B584B08DF80F00CB
:103D50008DF80E1002928DF8073000208DF80600C5
:103D6000FFE702989DF80610405CB8B1FFE79DF8A8
:103D70000F009DF806C09DF807300CFB03009DF86E
:103D80000E10029A12F80C20C0B2FFF705FEFFE7F2
:103D90009DF8060001308DF80600E2E704B080BD12
:103DA00080B582B000208DF80700FFE79DF807007E
:103DB000072817DCFFE79DF807000021FFF7D2FD79
:103DC0009DF8071040F27000C2F2000000EBC11035
:103DD000802100F045F8FFE79DF8070001308DF8DD
:103DE0000700E3E702B080BD80B582B08DF8070020
:103DF00040F20000C2F2000001889DF8072040F662
:103E00000040C4F20100FDF721F902B080BD0000BE
:103E100080B582B08DF8070040F20200C2F20000C7
:103E200001889DF8072040F60040C4F20100FDF72C
:103E30000DF902B080BD000080B582B08DF807009A
:103E4000FFF70EFD7820FFF7DFFC0020FFF7DCFC1A
:103E50009DF80700FFF7D8FCFFF714FD02B080BD06
:103E600080B582B001908DF80310FFF7F9FC78203F
:103E7000FFF7CAFC4020FFF7C7FC00208DF80200C6
:103E8000FFE79DF802009DF8031088420DDAFFE776
:103E900001989DF80210405CFFF7B6FCFFE79DF823
:103EA000020001308DF80200EBE7FFF7EBFC02B0F7
:103EB00080BD00007047000082B00190019840F280
:103EC0000401C2F200010968C90844F6D352C1F2E4
:103ED0006202A1FB0221890948430090FFE700BF6D
:103EE000FFE70098411E00910028F8D1FFE702B0DB
:103EF000704700007047000080B582B000900098C5
:103F00000138B0F1807F03D3FFE70120019019E071
:103F1000009801384EF21401CEF2000108604FF013
:103F2000FF300F2100F06AF84EF21801CEF20001C6
:103F3000002008604EF21002CEF20002072111604C
:103F40000190FFE7019802B080BD000080B5FDF749
:103F50008FFD80BD80B596B00CA801902821FCF79C
:103F600033F90198002302930B930A930993089362
:103F70000793069305930493039301220C924FF445
:103F800080310D910E9310920222139214914FF4EE
:103F9000E0111591FEF77EF918B1FFE7FCF71CFA66
:103FA000FFE70F20079002210891002009904FF4AD
:103FB00080620A920B9007A8FDF7B8FF18B1FFE7DF
:103FC000FCF70AFAFFE7022003904FF40040059047
:103FD00003A8FDF7C7FE18B1FFE7FCF7FDF9FFE7FF
:103FE00016B080BD70470000FFE7FEE74EF60C50AC
:103FF000CEF200000068C0F30220704782B08DF856
:10400000070000919DF9070000280AD4FFE70098F7
:1040100000019DF907104EF20042CEF200028854D2
:104020000BE0009800019DF8071001F00F014EF61B
:104030001452CEF200028854FFE702B0704700002D
:1040400083B00290029800F0070000904EF60C51E9
:10405000CEF200010868019001984FF6FF0210406F
:1040600001900198009A40EA02200022C0F2FA5220
:10407000104301900198086003B0704780B58AB082
:104080000890ADF81E100692059308986A466421C0
:104090001160E0210DF11E020223FDF7A5FB029045
:1040A000029818B1FFE70020099018E008986A46C6
:1040B00064211160E1210DF10E020623FDF736F9AE
:1040C0000290029818B1FFE70020099007E00699D6
:1040D000059A0DF10E0000F005F80990FFE7099828
:1040E0000AB080BD80B586B0049003910292049816
:1040F000008840BA01900498B0F8030040BA0090DC
:10410000BDF804000499897800F03CF818B9FFE77D
:104110000020059033E0BDF800000499497900F0D3
:1041200031F818B9FFE70020059028E0029868B13F
:10413000FFE701986421484348F20101C8F20001F9
:10414000A0FB0110C00B02990860FFE7039898B12B
:10415000FFE7009844F25C41484348F20101C8F28D
:104160000001A0FB01014EF66C60CFF6FF7000EB82
:10417000D13003990860FFE701200590FFE705981B
:1041800006B080BD84B0ADF80A008DF809109DF826
:104190000B008DF80700BDF80A008DF80800FF201D
:1041A0008DF8060031208DF8050000208DF8040000
:1041B000FFE79DF80400012836DCFFE79DF80410B6
:1041C0000DF10700415C9DF8060048408DF806009F
:1041D00000208DF80300FFE79DF8030007281CDC92
:1041E000FFE79DF806000006002809D5FFE79DF8C7
:1041F00006109DF8050080EA41008DF8060005E0F4
:104200009DF8060040008DF80600FFE7FFE79DF8E7
:10421000030001308DF80300DEE7FFE79DF804009E
:1042200001308DF80400C4E79DF809009DF80610E0
:10423000484003D0FFE70020039002E001200390F4
:10424000FFE7039804B0704780B584B00020019068
:104250000390FDF71BFCFFF77DFEFEF76FFFFEF7F7
:10426000D7FFFEF737FFFFF71BFB00F0E5F80198DB
:104270008DF80B000A208DF80A00FFE7FFF726F8FB
:104280009DF80B009DF80A10884210DAFFE745F60A
:104290009B62C0F60002142000210823FFF754FDA2
:1042A000012000F06FFA032000F018FA0FE045F645
:1042B0008862C0F60002002108231846FFF744FD7B
:1042C000012000F00BFA022000F04EF9FFE7FFF7A3
:1042D00067FD9DF80B0001308DF80B009DF80B0079
:1042E0009DF80A10B0EB410F04DDFFE700208DF8C8
:1042F0000B00FFE74FF47A70FCF7F6FCBEE7000016
:1043000083B00290019131208DF80300FF208DF8D9
:10431000020000208DF801008DF80000FFE79DF8F5
:1043200001000199884231D2FFE702989DF80110FF
:104330004A1C8DF80120415C9DF8020048408DF830
:10434000020000208DF80000FFE79DF8000007281C
:104350001BDCFFE79DF802000006002808D5FFE7F8
:104360009DF80210312080EA41008DF8020005E03E
:104370009DF8020040008DF80200FFE7FFE79DF87E
:10438000000001308DF80000DFE7C8E79DF802006B
:1043900003B0704780B582B001900198FCF7A4FC8F
:1043A00002B080BD80B5FEF733FF002080BD000065
:1043B00080B586B08DF81300039102929DF813101A
:1043C000039ABDF80830EC466420CCF8000040F2B7
:1043D000A040C2F20000FCF7A9FF18B9FFE70020D7
:1043E000059003E04FF0FF300590FFE7059806B019
:1043F00080BD000080B586B08DF813000391029255
:104400009DF81310039ABDF80830EC466420CCF8F0
:10441000000040F2A040C2F20000FDF7E5F918B933
:10442000FFE70020059003E04FF0FF300590FFE725
:10443000059806B080BD000080B582B0FFF7B2FFDE
:10444000B0F1FF3F04DCFFE74FF0FF30019023E0C5
:1044500000F07CF8B0F1FF3F04DCFFE76FF00100F3
:10446000019019E03220FFF795FF20208DF802001F
:1044700003208DF80300B0200DF102010222FFF7A6
:10448000B9FFB0F1FF3F04DCFFE76FF002000190DD
:1044900002E000200190FFE7019802B080BD00001B
:1044A00080B586B0049003910020029001902020F6
:1044B0008DF8040008208DF80500B02001A9022223
:1044C000FFF798FFB0F1FF3F04DCFFE74FF0FF304C
:1044D000059038E00A20FFF75DFFB12001A9062210
:1044E000FFF766FFB0F1FF3F04DCFFE76FF001006C
:1044F000059028E001A803300221FFF701FF9DF895
:104500000910884204D0FFE76FF0020005901AE01E
:10451000049848B1FFE79DF804109DF8050040EAB3
:10452000012004990880FFE7039848B1FFE79DF850
:1045300007109DF8080040EA012003990880FFE772
:1045400000200590FFE7059806B080BD80B582B0D9
:1045500006208DF8070000200DF107010122FFF76A
:1045600049FF02B080BD000080B58AB08DF82700F9
:104570009DF827000001C1B245F66562C0F6000251
:104580000120079008230693FFF7DEFB9DF8270024
:1045900000010830C1B2112032220623FFF7FCF9D6
:1045A000069B07989DF82720102101EB0211C9B244
:1045B00045F66A62C0F60002FFF7C6FB09A80DF1D6
:1045C0002201FFF76DFF079803218DF821108DF868
:1045D0002000BDF822000A2804DBFFE702208DF846
:1045E0002000FFE7BDF82200642804DBFFE703207A
:1045F0008DF82000FFE7BDF82200B0F57A7F04DBDC
:10460000FFE704208DF82000FFE7BDF8220042F20A
:104610001071884204DBFFE705208DF82000FFE7DA
:10462000BDF82400B0F57A7F04DBFFE704208DF8A5
:104630002100FFE7BDF8240042F21071884204DB3C
:10464000FFE705208DF82100FFE79DF82130662067
:104650000290A0EBC3009DF827100901BDF82420AB
:10466000EE464FF0080CCDF814C0CEF800C0C0B232
:10467000C9B2FFF71BFB0298DDF814C09DF820308B
:10468000A0EBC3009DF827201021039101EB02113C
:10469000BDF82220EE46CEF800C0C0B2C9B2FFF786
:1046A00005FB059B9DF827000001C1B245F6976206
:1046B000C0F6000268200490FFF746FB03990498B7
:1046C000059B9DF8272001EB0211C9B245F67462E3
:1046D000C0F60002FFF738FB0AB080BD80B586B097
:1046E0008DF8170003208DF80F009DF817000001CA
:1046F000C1B245F65D62C0F6000201200823FFF753
:1047000023FB40F27040C2F200000290FCF7D8F99F
:1047100002986421FCF792F80298FBF73FFF0246EB
:10472000029840F6FF71891A0491FCF7A5FA0498E3
:10473000B0F57A7F04D3FFE704208DF80F00FFE780
:104740009DF80F306E20A0EBC3009DF817100901F3
:10475000049AEE464FF0080CCDF804C0CEF800C025
:10476000C0B2C9B2FFF7A2FA019B9DF81700000181
:10477000C1B245F6A762C0F600027020FFF7E4FA66
:1047800006B080BD80B590B08DF83F0040F2A040EB
:10479000C2F2000000F0C2F870B9FFE79DF83F00D8
:1047A00000010830C1B245F67862C0F6000201206F
:1047B0000823FFF7C9FAA0E09DF83F000001C1B24D
:1047C00045F65662C0F6000201200B9008230C93B8
:1047D000FFF7BAFA0B980C9B9DF83F20102101EBD4
:1047E0000211C9B245F64E62C0F60002FFF7ACFAFC
:1047F00040F2A040C2F200000EA90DAA00F080F81D
:1048000000285ED0FFE79DF83F0000010A900E9857
:1048100000F095FB00220023C4F2590300F0CCF90C
:1048200002460A980B46EC460821CCF808100121F4
:10483000CCF804100221CCF80010C1B24620FFF7DA
:10484000EDF80E9801280ADBFFE79DF83F00000114
:10485000C1B2462020220823FFF79EF8FFE79DF80B
:104860003F0000010330C1B27320022206920023F0
:10487000FEF7D2FD9DF83F000001C1B278200890FC
:10488000432208230993FFF787F8069B09999DF8AF
:104890003F201020079000EB02100D9AEC46CCF858
:1048A0000010C1B26620FFF701FA07990898099B2A
:1048B0009DF83F2001EB0211C9B22522FFF76CF8E9
:1048C0001AE09DF83F000001C1B245F67062C0F6E3
:1048D000000204923220039008230593FFF734FA74
:1048E0000398049A059B9DF83FC0102101EB0C1121
:1048F000C9B2FFF729FAFFE7FFE710B080BD00005B
:1049000080B584B00390029101920398029A019BB2
:1049100042F25C41FFF7B2FB04B080BD80B586B0C7
:1049200004904CF6EF00ADF80C0004986A46642140
:104930001160E02103AA0223FCF756FF02900298BF
:1049400020B1FFE70020ADF8160033E004986A4676
:1049500064211160E1210DF10E020223FCF7E6FC57
:104960000290029820B1FFE70020ADF8160021E088
:104970009DF80E109DF80F0040EA0120ADF80600EA
:10498000BDF8060040F63F010840ADF80400BDF850
:10499000040040F60701884208D1FFE7BDF8060091
:1049A0004FF2C0710840ADF8160003E00020ADF8EA
:1049B0001600FFE7BDF8160006B080BD2DE9F04DEA
:1049C00007460E4600F092FC04460D463A46334632
:1049D00000F0E6FCDFF86CA0DFF86CB01B4B07467C
:1049E000884616F0004F4FF000020AD000F00EFB90
:1049F0000AD900225B463846414600F041FC1BD2F2
:104A000012E000F003FB08D200225346204629465C
:104A100000F0D2FC04460D460EE000225B4638460C
:104A2000414600F02DFC07D8002253462046294677
:104A300000F00EF804460D463146204665F31E018F
:104A4000BDE8F08D0000F03F0000E03F0000E0BF57
:104A500010B591EA030F48BF83F0004300F1B4841E
:104A6000841A71EB030C05D2121943EB0C03001BE3
:104A700061EB0C014FEA1154A4EB135CDFF81CE16D
:104A80001EEA430F18BF9EEA445F00F0748021EADB
:104A9000045123EA0E0343F48013DCF1200E32D3D9
:104AA00022FA0CFE10EB0E0023FA0CFE41EB0E0175
:104AB000CCF1200E03FA0EFE10EB0E00CCF1200E0E
:104AC00051F10001B1F5801F32D201EB045112FA0D
:104AD0000EF2BDE8104058BF7047401C38BF5FEA77
:104AE000420218BF7047002814BF20F0010041F1B6
:104AF00000014FEA410313F5001F38BF7047A1F1D1
:104B0000C04100F0B7BB012A43EB0302ACF1200C1B
:104B1000DCF11F0E32BF4FF0000E23FA0CF310EB46
:104B2000030041EB0451B4EB115FD0D0A1EB045171
:104B300001F58011490801EB04515FEA30000ED302
:104B400050F1000038BF12FA0EFE08D1BDE8104047
:104B5000C9E7401C38BF5FEA4202CAD1C3E7BDE8DB
:104B600010404FEA410313F5001F38BF7047A1F111
:104B7000C04100F07FBB9EEA445F08D011EA5E0F9F
:104B8000BDE8104004BF01F0004100207047BDE8BF
:104B9000104070B500F020FB64FBBE3E0000E0FF5B
:104BA000491058BFC1F140415B1058BFC3F14043A9
:104BB0008B42EFF3008070472DE9C04130B4DFF83D
:104BC000A4C23CEA111418BF3CEA131400F0ED80B3
:104BD0001CEA111481EA030544EAD57418BF1CEAE3
:104BE000131500F0C880A4EB050404F17F7404F5EC
:104BF00000344FF0004545EAC12145EAC32341EAAC
:104C0000505143EA52534FEAC0204FEAC222994220
:104C100008BF904200F09D804FEA13650FF24416E2
:104C2000765D4FEA134506FB05F7C7F1807706FB73
:104C300007F74FEAD737A7FB03687642A7FB06CEF4
:104C4000C8F5803838BFA8F1010807FB08E6A6FBC5
:104C5000028C4FF0000EE6FB03CEDCF1000CCEF12F
:104C6000004E38BFAEF1010EA6FB0C584FF0000706
:104C7000E6FB0E87A1FB08C6A0FB07CE16EB0E06CF
:104C80004FF0000545F10005E1FB076515F1E04E29
:104C90007EBFA4F580345FEA46066D4116F18007B9
:104CA00045F100054FEA172747EA05674FEA152542
:104CB0004FEA0666A6F1DE46B6F1805F20D9384697
:104CC00005EBC47124F0010C01EB0C11BCF1FE6F7B
:104CD00002D8F0BCBDE8008124425CBF01F5801E13
:104CE0009EEAC47F02D4F0BCBDE80081244200F1FA
:104CF0003980A1F1C041F0BCBDE8004100F0BABA72
:104D00004FEAD02040EA41504FEAD1214FEAD22267
:104D100042EA43524FEAD323A7FB028607FB03660E
:104D200005FB02661EEA0E0F58BFA6EB0056B6EB57
:104D300000564FEA520E4EEAC37E18EB0E0E56EBAB
:104D4000530EBCD518EB02085E417F1C55F10005DF
:104D5000B5E74FF480154FF000074FF000064FF015
:104D60000008ACE701F1C04101F000414FF0000044
:104D7000F0BCBDE800810CEA131511EA0C1F00D04D
:104D80000CE013EA0C1F00F026804FF0000081EACF
:104D9000030101F00041F0BCBDE80081F0BCBDE8BA
:104DA000004181EA030100F065BAF0BCBDE80041B2
:104DB00070B500F011FA00BF097EFC3E00F007B8A4
:104DC0004FF0000081EA030101F00041704781EAE1
:104DD000030100F04FBAF0BCBDE8004122494FF09A
:104DE00000007047FFFDFBF9F7F5F4F2F0EEEDEB94
:104DF000E9E8E6E4E3E1E0DEDDDBDAD8D7D5D4D3D9
:104E0000D1D0CFCDCCCBCAC8C7C6C5C4C2C1C0BF24
:104E1000BEBDBCBBBAB9B8B7B6B5B4B3B2B1B0AF2A
:104E2000AEADACABAAA9A8A8A7A6A5A4A3A3A2A10E
:104E3000A09F9F9E9D9C9C9B9A99999897979695C9
:104E400095949393929191908F8F8E8E8D8C8C8B65
:104E50008B8A8989888887878685858484838382ED
:104E6000828181800000FF070000F87F51EA030C77
:104E700017D41CF5801F58BFBCF5801F00F10680B9
:104E8000994218BF704708BF9042704707D711F585
:104E9000801F58BF13F5801F19D49942704789426B
:104EA00070471CF5801F08D5BCF5801FF7D58B42D5
:104EB00018BF704708BF824270474FF4001C1CEBBC
:104EC000410F38BF1CEB430F01D28B42704770B5C6
:104ED00000F082F9922449004FF000514FF08053C6
:104EE000FFF75EBE4FEA1153A3F58063D3F11E03B3
:104EF000A8BFD3F1200C08DB4FF0004242EAC122E8
:104F000052EA505232FA03F0704709420BD4102B88
:104F1000C4BF0020704703F5787CBCF1FF3F05D08B
:104F20004FF0FF3070474FF00000704770B500F051
:104F300053F900BF4992248000207047F0E710F039
:104F4000004248BF4042B0FA80F310FA03F10AD0A1
:104F5000C3F11D0303F5806302EB03524FEA415096
:104F600002EBD12170474FF000007047B0FA80F398
:104F700010FA03F10AD0C3F11D0303F580634FEA71
:104F800003524FEA415002EBD12170474FF000002D
:104F90007047000051EA030C17D41CF5801F58BF5E
:104FA000BCF5801F00F10680994218BF704708BF0A
:104FB0009042704707D711F5801F58BF13F5801F27
:104FC00019D499427047894270471CF5801F08D553
:104FD000BCF5801FF7D58B4218BF704708BF8242CF
:104FE00070474FF4001C1CEB410F38BF1CEB430F04
:104FF00001D28B42704770B500F0EEF89224490060
:105000004FF080514FF00053FFF7CABD51EA030C37
:1050100017D41CF5801F58BFBCF5801F00F1068017
:10502000994218BF704708BF9042704707D711F5E3
:10503000801F58BF13F5801F19D4994270478942C9
:1050400070471CF5801F08D5BCF5801FF7D58B4233
:1050500018BF704708BF824270474FF4001C1CEB1A
:10506000410F38BF1CEB430F01D28B42704770B524
:1050700000F0B2F8922449004FF000514FF08053F5
:10508000FFF78EBD70B5DFF848C11CEA111E1EBFC8
:105090001CEA13159EEA0C0F95EA0C0F00F06F80C6
:1050A00081EA03044EEAD47EAE4421EA4C1123EA9D
:1050B0004C1341F4801143F48013AEF17F7EA1FBC9
:1050C000024CA0FB0365361955EB0C05A1FB034C04
:1050D0004CF10003A0FB021C16EB0C06654153F1DA
:1050E0000003094218BF46F0010613F4007F0BD1FC
:1050F0004FEA03314FEA053041EA155140EA1650B4
:1051000034036FF003020AE04FEAC3214FEAC520DF
:1051100041EA555140EA5650F4026FF0020202EBA8
:105120002E4201EB025585EACE710AD05FEA440CAB
:1051300018BF24F0004450F1000041F1000120EAC2
:10514000D47040F2FE7C624500D270BDA84214BF0C
:105150004FF080444FF04044002E08BF0024BEF1C1
:10516000806FA8BFA1F1C041BDE8704080F282808D
:1051700001F1C04101F000414FF0000070470CEA1E
:1051800013159EEA0C0F18BF95EA0C0F06D081EAA2
:10519000030E4FF000000EF0004170BD00F01CF84F
:1051A0008900013E00F007B800F009B84FEA430C4F
:1051B0005FEA5C5C08D081EA030100F05BB84FEA6B
:1051C000410C5FEA5C5CF6D102494FF00000704789
:1051D0000000FF070000F87F0EF1020E2EF0030E14
:1051E0005EF8046B364205D4012A43EB030515F53E
:1051F000001F12D8012841EB010C1CF5001F0CD830
:105200000ED14FEAD17C0CEB4C0C0CF1020C15F5D5
:10521000001F08BF4CEBD37C04E04FF0080C01E00A
:105220004FEAD37C0CEB4C0526FA05F606F0070690
:10523000B6F1040C06D20EEB860CBDE870404CF0C3
:10524000010C6047DFE80CF0090B02024FF000414F
:10525000A1F500214FF0000070BD1946104601284D
:1052600051EB010418BFD4F5001484BF002001F0F5
:10527000004170BD0808A0F500114FEA31017047E8
:1052800053EA010C17D41CF5801F58BFBCF5801FD2
:1052900000F106808B4218BF704708BF82427047FA
:1052A00007D713F5801F58BF11F5801F19D48B4203
:1052B00070479B4270471CF5801F08D5BCF5801FC6
:1052C000F7D5994218BF704708BF904270474FF416
:1052D000001C1CEB430F38BF1CEB410F01D299425D
:1052E00070470FB40CBC03BCFFF7C1BE5FEA410CB2
:1052F0005FEA5C5CACF580635B1C39D4D3F13402AB
:1053000040F34580B2F1200314DA4FF0010C0CFA9F
:1053100002FCACF10103034020EA0300B3EB5C02A2
:1053200008BF10EA0C0F98BF704710EB0C0041F15A
:10533000000170470AD0C3F1200201FA02FC0128E3
:105340004CF1000021FA03F101FA03F14FF0010CD6
:105350000CFA03FCACF1010321EA0301B0F1004FA8
:1053600008BF11EA0C0F4FF0000088BF614470477E
:10537000B3F1FF3F28BF50EAC12C01F000414FF0CC
:10538000000084BF41F07C5141F470017047B3F5D7
:10539000806FB8BF704770B5FFF71EFF40DBB6BE29
:1053A00010B591EA030F81F000413FF559AB83F04E
:1053B000004300F009B8000010B591EA030F48BFA0
:1053C00083F000433FF54CAB841A71EB030C07D21A
:1053D0008CF0004C121943EB0C03001B61EB0C0129
:1053E0004FEA1154A4EB135CDFF8A4E11EEA430F6B
:1053F00018BF9EEA445F00F0B48021EA045123EA1A
:105400006E035242C3EB6E0338BF5B1EDCF1200E0D
:1054100025D322FA0CFE10EB0E0043FA0CFE41EBF2
:105420000E01CCF1200E03FA0EFE10EB0E00CCF1B3
:10543000200E51F1000129D401EB045112FA0EF2B1
:10544000BDE8104058BF7047401C1CBFB2F1004F70
:10545000704700280CBF491C20F00100704712EB78
:10546000020E43EB030218BF4FF0010E4EEA420258
:10547000ACF1200CDCF11E0E56D943FA0CFE10EBF9
:105480000E00CCF11E0E51F1FF31D5D50EF1010EFB
:1054900012FA0EFE404141EB010101EB445C5FEA70
:1054A0005C5C10D901EB045110EBDE7038BFBEF12B
:1054B000004FBDE8104018BF704700280CBF491CC2
:1054C00020F00100704734D24FEAD42C24F4006459
:1054D00011F500111BD0B1FA81F20B3AA41AA41EE7
:1054E000D2F12003914030FA03F31943904001EBCD
:1054F000CC7101EB0451002CBDE81040A8BF7047EF
:1055000001F1C04101F000414FF000007047B0FAD6
:1055100080F310FA03F102D1BDE810407047E41A9D
:10552000173C4805C90AE2E701EB0451BDE8104009
:10553000704749104FEA300001EB0451BDE81040BC
:1055400002E04FF0000170474A0008BF0042F8D067
:10555000B2F5001F28BF704701F000414FF0000076
:1055600070479EEA445F07D011EA5E0FBDE8104025
:1055700004BF002100207047BDE8104070B5FFF760
:105580002BFE00BF40DFF63E104683F0004170471F
:105590000000E0FF10B5FFF769FC0CBF0120002000
:1055A00010BD10B5FFF762FC14BF0120002010BD34
:1055B00010B5FFF7EFFC8CBF0120002010BD10B527
:1055C000FFF7E8FC2CBF0120002010BD10B5FFF74D
:1055D0001DFD94BF0120002010BD10B5FFF716FD82
:1055E00034BF0120002010BD0000000000000000BA
:1055F0000102030406070809000000000102030479
:1056000002030405060708090A0B0C0D0E0F101003
:10561000010202030405060708090A0B0C0D0E0F10
:10562000101001020000000000000000002F000028
:1056300000000700070000147F147F1400242A7F55
:105640002A120023130864620036495522500000D4
:105650000007000000001C224100000041221C0045
:105660000014083E08140008083E0808000000A0C6
:1056700060000008080808080000606000000020C2
:1056800010080402003E5149453E0000427F4000A0
:10569000004261514946002141454B310018141226
:1056A0007F10002745454539003C4A4949300001F3
:1056B0007109050300364949493600064949291E42
:1056C00000003636000000005636000000081422A4
:1056D00041000014141414140000412214080002A4
:1056E00001510906003E4955592E007C1211127CC9
:1056F000007F49494936003E41414122007F4141F6
:10570000221C007F49494941007F09090901003EE7
:105710004149497A007F0808087F0000417F410025
:10572000002040413F01007F08142241007F40409B
:105730004040007F020C027F007F0408107F003E83
:105740004141413E007F09090906003E4151215E69
:10575000007F091929460046494949310001017F66
:105760000101003F4040403F001F2040201F003FFC
:105770004038403F006314081463000708700807AE
:1057800000615149454300007F4141000002040887
:105790001020000041417F0000040201020400408B
:1057A000404040400000010204000020545454785E
:1057B000007F48444438003844444420003844447E
:1057C000487F00385454541800087E09010200181C
:1057D000A4A4A47C007F080404780000447D400059
:1057E000004080847D00007F102844000000417F3D
:1057F0004000007C04180478007C08040478003819
:105800004444443800FC242424180018242418FCA0
:10581000007C0804040800485454542000043F4409
:105820004020003C4040207C001C2040201C003CCC
:105830004030403C004428102844001CA0A0A07C1C
:10584000004464544C440000087F41000000007F85
:1058500000000000417F0800000804081008000054
:105860000000000000000000000000000000000038
:1058700000F80000000000000033300000000016B7
:105880000E00160E0000000000000000000040C0E6
:105890007840C0784000043F04043F0404000070D6
:1058A00088FC08300000001820FF211E0000F008CE
:1058B000F000E018000000211C031E211E0000F073
:1058C0000888700000001E212324192721100000E1
:1058D00000160E00000000000000000000000000A4
:1058E00000E0180402000000000718204000000239
:1058F0000418E000000000402018070000004040AD
:1059000080F0804040000202010F0102020000000E
:1059100000F0000000000101011F01010100000072
:1059200000000000000000B0700000000000000057
:105930000000000000000001010101010101000060
:1059400000000000000000303000000000000000F7
:10595000000080601804006018060100000000E0EC
:1059600010080810E000000F102020100F00001099
:1059700010F8000000000020203F202000000070F0
:1059800008080888700000302824222130000030E8
:105990000888884830000018202020110E000000E0
:1059A000C02010F8000000070424243F240000F861
:1059B0000888880808000019212020110E0000E046
:1059C000108888180000000F112020110E000038E8
:1059D0000808C83808000000003F00000000007000
:1059E000880808887000001C222121221C0000E089
:1059F00010080810E0000000312222110F00000002
:105A000000C0C000000000000030300000000000B6
:105A100000C0C0000000000080B070000000000066
:105A200080402010080000010204081020004040BF
:105A30004040404040000404040404040400000802
:105A400010204080000000201008040201000070B7
:105A500048080808F0000000003036010000C0309F
:105A6000C828E810E0000718272423140B000000C2
:105A7000C038E0000000203C23020227382008F84C
:105A8000888888700000203F202020110E00C03040
:105A9000080808083800071820202010080008F817
:105AA00008080810E000203F202020100F0008F810
:105AB0008888E8081000203F20202320180008F8DC
:105AC0008888E8081000203F200003000000C03054
:105AD00008080838000007182020221E020008F8D5
